:1000000014C1000041C100003FC100003DC100001B
:100010003BC1000039C1000037C1000035C10000FC
:1000200033C1000031C100002FC100002DC100000C
:100030002BC1000029C1000027C1000025C100001C
:1000400023C1000021C100001FC100001DC100002C
:100050001BC1000019C1000017C1000013C400003B
:1000600013C10000D9C30000AEC300000DC10000E1
:100070000BC1000009C1000007C1000005C100005C
:1000800003C1000001C10000FFC00000FDC000006E
:10009000FBC00000F9C00000F7C00000F5C0000080
:1000A000F3C00000F1C00000EFC00000EDC0000090
:1000B000EBC00000E9C00000E7C00000E5C00000A0
:1000C000E3C00000E1C00000DFC00000DDC00000B0
:1000D000DBC00000D9C00000D7C00000D5C00000C0
:1000E000D3C0000070017301620166016A01AA01B8
:1000F00077017B018101850189018F0193019701BE
:10010000AA019D01A101A5010000210024002700F2
:100110002A002D0030003300010100000401070116
:100120000A01000020002300260029002C002F00D7
:100130003200000100000301060109010000220055
:10014000250028002B002E003100340002010000A1
:10015000050108010B010505050507050808080844
:10016000020202020A0A080804040404010101014F
:10017000010101010303030303030303040707074A
:100180000C0C0C0C0C0C0C0C0202020206060606EF
:10019000060606060B0B0B0B0B0B0B0B01021020BC
:1001A00020080810204010204080020102010804AD
:1001B0000201010204081020408080402010080441
:1001C000020180040201804020100804020108049A
:1001D00002010102040810204080010204081020DE
:1001E000408000000A0B02090C0D0E0807030401F1
:1001F00000000000000000000000000000000000FF
:1002000000000000000000000000000000001211CB
:1002100010000000000000000000000000000000CE
:100220000000000000000000490711241FBECFEFAE
:10023000D1E2DEBFCDBF00E00CBF12E0A0E0B2E033
:10024000E8EBF2E100E00BBF02C007900D92A6348C
:10025000B107D9F723E0A6E4B2E001C01D92AB32AA
:10026000B207E1F711E0C5E1D1E000E005C0219758
:100270000109802FFE013AD6C431D10780E008077A
:10028000B1F78FD30C945A09BBCECF93C82FE9E1B5
:10029000F2E04491E3EDF1E02491EDE8F1E0949196
:1002A000992309F46AC0442309F454C050E0FA01C8
:1002B0003197E231F10508F04DC08827EE58FF4F25
:1002C0008F4F14C6809180008F7707C08091800087
:1002D0008F7D03C080918000877F809380003AC02B
:1002E00084B58F7702C084B58F7D84BD33C0809183
:1002F000B0008F7703C08091B0008F7D8093B000F5
:1003000029C0809190008F7707C0809190008F7DE9
:1003100003C080919000877F809390001BC08091E4
:10032000A0008F7707C08091A0008F7D03C08091CF
:10033000A000877F8093A0000DC0309120013F77FF
:1003400007C0309120013F7D03C030912001377FED
:1003500030932001E92FF0E0EE0FFF1FE45CFE4F29
:10036000A591B4918FB7F894EC91C11103C0209579
:100370002E2301C02E2B2C938FBFCF910895CF92A7
:10038000DF92EF92FF920F931F93CF93DF936C0155
:100390007A018B01C0E0D0E0CE15DF0589F0D801ED
:1003A0006D918D01D601ED91FC910190F081E02DD0
:1003B000C6011995892B11F47E0102C02196ECCF5C
:1003C000C701DF91CF911F910F91FF90EF90DF90C8
:1003D000CF900895FC01918D828D981761F0828DE8
:1003E000DF01A80FB11D5D968C91928D9F5F9F7369
:1003F000928F90E008958FEF9FEF0895FC01918D0B
:10040000828D981731F0828DE80FF11D858D90E077
:1004100008958FEF9FEF0895FC01918D228D892F14
:1004200090E0805C9F4F821B91098F7399270895FC
:100430008FE492E0F1DF21E0892B09F420E0822FA4
:100440000895FC01848DDF01A80FB11DA35ABF4F91
:100450002C91848D90E001968F739927848FA689C3
:10046000B7892C93A089B1898C9180648C93938DEA
:10047000848D981306C00288F389E02D80818F7DDA
:1004800080830895EF92FF920F931F93CF93DF9392
:10049000EC0181E0888F9B8D8C8D981305C0E889D5
:1004A000F989808185FD23C0F62E0B8D10E00F5F4A
:1004B0001F4F0F731127E02E8C8DE8120BC00FB663
:1004C00007FCFACFE889F989808185FFF5CFCE0155
:1004D000B8DFF2CF8B8DFE01E80FF11DE35AFF4F1D
:1004E000F0820B8FEA89FB898081806207C0EE89E8
:1004F000FF896083E889F98980818064808381E055
:1005000090E0DF91CF911F910F91FF90EF900895B0
:10051000CF93DF93EC01888D8823C1F0EA89FB89B2
:10052000808185FD05C0A889B9898C9186FD0EC0A2
:100530000FB607FCF5CF808185FFF2CFA889B98976
:100540008C9185FFEDCFCE017CDFE8CFDF91CF919D
:10055000089580E090E0892B19F06ADF811125C0B1
:1005600080E090E0892B41F080E090E0892B21F041
:100570000E94000081111CC080E090E0892B41F0B6
:1005800080E090E0892B21F00E940000811113C0CF
:1005900080E090E0892BA1F080E090E0892B81F051
:1005A0000E94000081110AC008950E940000D8CF67
:1005B0000E940000E1CF0E940000EACF0C940000EE
:1005C0000895CF93DF9390E0FC01E456FE4F249111
:1005D000FC01EA5AFE4F8491882361F190E0880F74
:1005E000991FFC01E85FFE4FC591D491FC01E45CCA
:1005F000FE4FA591B491611109C09FB7F89488810D
:10060000209582238883EC912E230BC0623061F405
:100610009FB7F8943881822F809583238883EC914B
:100620002E2B2C939FBF06C08FB7F894E8812E2BFA
:1006300028838FBFDF91CF9108953FB7F8948091C1
:100640004B0290914C02A0914D02B0914E0226B502
:10065000A89B05C02F3F19F00196A11DB11D3FBFFA
:10066000BA2FA92F982F8827820F911DA11DB11D88
:10067000BC01CD0142E0660F771F881F991F4A9584
:10068000D1F708958F929F92AF92BF92CF92DF924F
:10069000EF92FF926B017C01D0DF4B015C01C11432
:1006A000D104E104F104E9F0C8DFDC01CB018819D1
:1006B0009909AA09BB09883E9340A105B10578F3C1
:1006C00021E0C21AD108E108F10888EE880E83E023
:1006D000981EA11CB11CC114D104E104F10421F73E
:1006E000DECFFF90EF90DF90CF90BF90AF909F90C4
:1006F0008F9008952FB7F894609147027091480247
:100700008091490290914A022FBF089594D46115B7
:10071000710579F0FB0101900020E9F73197AF01F5
:10072000461B570BDC01ED91FC910280F381E02D1B
:10073000199480E090E008954F925F926F927F92BB
:10074000EF92FF920F931F93CF93DF93CDB7DEB756
:10075000A1970FB6F894DEBF0FBECDBF7C01FA01A2
:10076000CB0119A2223008F42AE08E010F5D1F4F41
:10077000422E512C612C712CBF01A301920178D51E
:10078000F901CA01015011096A3014F4605D01C019
:10079000695CD8016C93232B242B252B69F7B801B6
:1007A000C701B5DFA1960FB6F894DEBF0FBECDBF6F
:1007B000DF91CF911F910F91FF90EF907F906F90FD
:1007C0005F904F9008951F920F920FB60F921124D1
:1007D0000BB60F922F933F934F935F936F937F933B
:1007E0008F939F93AF93BF93EF93FF938FE492E028
:1007F00028DEFF91EF91BF91AF919F918F917F91F3
:100800006F915F914F913F912F910F900BBE0F9081
:100810000FBE0F901F9018951F920F920FB60F9258
:1008200011240BB60F922F938F939F93EF93FF9307
:10083000E0915F02F09160028081E0916502F091A9
:10084000660282FD12C09081809168028F5F8F7373
:1008500020916902821751F0E0916802F0E0E15BBB
:10086000FD4F958F8093680201C08081FF91EF91C9
:100870009F918F912F910F900BBE0F900FBE0F90F5
:100880001F9018951F920F920FB60F9211242F935D
:100890003F938F939F93AF93BF9380914702909123
:1008A0004802A0914902B0914A023091460223E0E9
:1008B000230F2D3720F40196A11DB11D05C026E898
:1008C000230F0296A11DB11D20934602809347027B
:1008D00090934802A0934902B0934A0280914B0240
:1008E00090914C02A0914D02B0914E020196A11D33
:1008F000B11D80934B0290934C02A0934D02B09394
:100900004E02BF91AF919F918F913F912F910F9088
:100910000FBE0F901F901895CF92DF92EF92FF922B
:100920000F931F93E82FF92F05C0015011092109DA
:10093000310961F1908196239417B9F305C00150F4
:1009400011092109310911F1908196239413F7CFF0
:10095000C12CD12CE12CF12C0AC08FEFC81AD80A77
:10096000E80AF80A0C151D052E053F0579F080816F
:100970008623841791F36C2D7D2D8E2D9F2D1F9135
:100980000F91FF90EF90DF90CF90089560E070E0BE
:1009900080E090E01F910F91FF90EF90DF90CF905B
:1009A0000895789484B5826084BD84B5816084BDE7
:1009B00085B5826085BD85B5816085BD80916E00FD
:1009C000816080936E00109281008091810082602E
:1009D000809381008091810081608093810080916B
:1009E00080008160809380008091B100846080935A
:1009F000B1008091B00081608093B000809191003F
:100A00008260809391008091910081608093910039
:100A1000809190008160809390008091A10082601D
:100A20008093A1008091A10081608093A1008091BA
:100A3000A00081608093A00080912101826080935A
:100A40002101809121018160809321018091200109
:100A500081608093200180917A00846080937A0085
:100A600080917A00826080937A0080917A00816020
:100A700080937A0080917A00806880937A00109247
:100A8000C10010921F0310922003109221031092B4
:100A900022031092ED021092EE021092EF021092D9
:100AA000F00260ED77E080E090E0ECDD8FE492E032
:100AB00090931E0380931D03E0915F02F09160020A
:100AC00082E08083E0915B02F0915C021082E09111
:100AD0005D02F0915E0280E1808310926702E091F6
:100AE0006302F091640286E08083E0916102F091FC
:100AF0006202808180618083E0916102F0916202F4
:100B0000808188608083E0916102F091620280813F
:100B100080688083E0916102F091620280818F7D24
:100B20008083E8DDC090ED02D090EE02E090EF020D
:100B3000F090F002DC01CB018C199D09AE09BF09D0
:100B4000C297A105B10530F463E070E080E090E069
:100B500099DDE7CFCFDD6093ED027093EE028093D5
:100B6000EF029093F00260E172E080911D0390919A
:100B70001E03CDDD6AE070E080E090E083DD81E07F
:100B80008093F10261E088E31CDD61E087E319DD19
:100B900060E086E316DD93E0A92EB12CC3E2D0E03D
:100BA00022ED222E21E0322E3CE8832E31E0932EDE
:100BB000A1DD672B682B692B09F0C1C09BDD62307A
:100BC00071058105910508F0BAC035C093DD6093C9
:100BD000ED027093EE028093EF029093F00262E2D6
:100BE00072E080911D0390911E0391DD6AE272E034
:100BF00080911D0390911E038ADD7CDDAB01BC0159
:100C00002AE080911D0390911E0396DD6CE272E054
:100C100080911D0390911E037ADD65E070E080E015
:100C200090E030DD6AE070E080E090E02BDD8091C4
:100C3000F1028111DBC080E028DBC5010197F1F7EB
:100C400081E023DBCE010197F1F780E01EDBF101AB
:100C50006491F4018491E82FF0E0EE0FFF1FEE5D48
:100C6000FE4F8591949100E412E42FE030E0462F8E
:100C700053DE611571058105910539F0DC01CB0169
:100C80000196A11DB11DBF7003C080E090E0DC01A2
:100C9000BC01990F880B990BD8D125E83CEF4CED9E
:100CA00051E42CD120E030E040E05FE32DD28ED142
:100CB0006B017C01072E000C880B990BC6D12B0110
:100CC0003C0126E636E646EE5FE3B1D1181674F431
:100CD00020E030E04AE754E4C301B201B0D187FF1D
:100CE00005C0CE010197F1F7C60102C08FEF9FEF5B
:100CF0006C01990FEE08FF08F7FE14C0E0914F0257
:100D0000F09150020190F081E02D6DE28FE492E0CD
:100D1000199544275527BA014C195D096E097F09B9
:100D20002AE003C02AE0B701A6018FE492E004DDC7
:100D300062E472E08FE492E0EADC0BDC39CFDADCCB
:100D400060932703709328038093290390932A03C9
:100D5000C0902303D0902403E0902503F090260355
:100D60006C157D058E059F0540F4609323037093F9
:100D700024038093250390932603C0902303D090EF
:100D80002403E0902503F09026039B01AC012C196D
:100D90003D094E095F0969017A013AEFC316D10492
:100DA000E104F10408F447CF609323037093240314
:100DB00080932503909326039DDCC090ED02D09094
:100DC000EE02E090EF02F090F002DC01CB018C1912
:100DD0009D09AE09BF09C297A105B10508F0F6CE7D
:100DE00063E070E080E090E04DDCE6CF80911D0391
:100DF00090911E03DC01ED91FC910480F581E02DC2
:100E00001995892B99F380911D0390911E03DC01A4
:100E1000ED91FC910480F581E02D199518161906C5
:100E20000CF009CF80911D0390911E03DC01ED9120
:100E3000FC910680F781E02D19959927833691055D
:100E400051F08637910509F4F6CE88359105D9F62B
:100E50001092F102D8CF65E372E080911D0390916A
:100E60001E0355DC2AE041E050E060E070E0809134
:100E70001D0390911E0360DC6CE372E080911D0302
:100E800090911E0344DC62E370E080E090E0FADBC6
:100E9000D2CEEFE4F2E01382128288EE93E0A0E07B
:100EA000B0E084839583A683B78384E092E0918346
:100EB000808385EC90E09587848784EC90E0978729
:100EC000868780EC90E0918B808B81EC90E0938B17
:100ED000828B82EC90E0958B848B86EC90E0978BF4
:100EE000868B118E128E138E148E0895EE0FFF1FB7
:100EF000881F8BBF0790F691E02D19940CD07EC10E
:100F000076D140F06DD130F021F45F3F19F05FC130
:100F10005111A8C162C183D198F39923C9F3552314
:100F2000B1F3951B550BBB27AA27621773078407DC
:100F300038F09F5F5F4F220F331F441FAA1FA9F392
:100F400033D00E2E3AF0E0E830D091505040E69584
:100F5000001CCAF729D0FE2F27D0660F771F881FE5
:100F6000BB1F261737074807AB07B0E809F0BB0BD4
:100F7000802DBF01FF2793585F4F2AF09E3F5105F8
:100F800068F025C16FC15F3FECF3983EDCF38695B6
:100F900077956795B795F7959F5FC9F7880F911D6E
:100FA0009695879597F90895E1E0660F771F881F5A
:100FB000BB1F621773078407BA0720F0621B730B0D
:100FC000840BBA0BEE1F88F7E095089504D068945F
:100FD000B11148C108952BD188F09F5790F0B92FD7
:100FE0009927B751A0F0D1F0660F771F881F991F7E
:100FF0001AF0BA95C9F712C0B13081F032D1B1E020
:1010000008952FC1672F782F8827B85F39F0B93F2F
:10101000CCF3869577956795B395D9F73EF490957F
:101020008095709561957F4F8F4F9F4F089548D061
:1010300008F48FEF089581E090E0F8943BC140D030
:1010400008F481E00895E89409C097FB3EF4909578
:101050008095709561957F4F8F4F9F4F9923A9F091
:10106000F92F96E9BB279395F69587957795679520
:10107000B795F111F8CFFAF4BB0F11F460FF1BC064
:101080006F5F7F4F8F4F9F4F16C0882311F096E9F7
:1010900011C0772321F09EE8872F762F05C06623A5
:1010A00071F096E8862F70E060E02AF09A95660F5E
:1010B000771F881FDAF7880F9695879597F9089517
:1010C000990F0008550FAA0BE0E8FEEF1616170659
:1010D000E807F907C0F012161306E407F50798F0C1
:1010E000621B730B840B950B39F40A2661F0232BDA
:1010F000242B252B21F408950A2609F4A140A69556
:101100008FEF811D811D08950BD078C069D028F024
:101110006ED018F0952309F05AC05FC01124A2C008
:101120007ED0A0F3959FD1F3950F50E0551F629F9D
:10113000F001729FBB27F00DB11D639FAA27F00D30
:10114000B11DAA1F649F6627B00DA11D661F829F57
:101150002227B00DA11D621F739FB00DA11D621F3C
:10116000839FA00D611D221F749F3327A00D611D59
:10117000231F849F600D211D822F762F6A2F11243B
:101180009F5750408AF0E1F088234AF0EE0FFF1F8E
:10119000BB1F661F771F881F91505040A9F79E3FC5
:1011A000510570F014C05EC05F3FECF3983EDCF375
:1011B000869577956795B795F795E7959F5FC1F702
:1011C000FE2B880F911D9695879597F9089597F9AD
:1011D0009F6780E870E060E008959FEF80EC0895DD
:1011E00000240A9416161706180609060895002406
:1011F0000A9412161306140605060895092E039480
:10120000000C11F4882352F0BB0F40F4BF2B11F4F3
:1012100060FF04C06F5F7F4F8F4F9F4F089557FD52
:101220009058440F551F59F05F3F71F04795880F54
:1012300097FB991F61F09F3F79F0879508951216EB
:1012400013061406551FF2CF4695F1DF08C0161697
:1012500017061806991FF1CF869571056105089448
:101260000895E894BB2766277727CB0197F908955F
:10127000A1E21A2EAA1BBB1BFD010DC0AA1FBB1F9A
:10128000EE1FFF1FA217B307E407F50720F0A21B0C
:10129000B30BE40BF50B661F771F881F991F1A9479
:1012A00069F760957095809590959B01AC01BD01A3
:0812B000CF010895F894FFCF6F
:1012B800000000004202BF010C02EA01FE018802A0
:1012C800564D4450565F317C315F564D4450560D53
:1012D8000A00564D4450455F31007C005F564D442E
:1012E80050450D0A00564D4450435F005F564D442B
:0612F80050430D0A000046
:00000001FF
