:10000000D2C00000FEC00000FCC00000FAC000002A
:10001000F8C00000F6C00000F4C00000F2C000000C
:10002000F0C00000EEC00000ECC00000EAC000001C
:10003000E8C00000E6C00000E4C00000E2C000002C
:10004000E0C00000DEC00000DCC00000DAC000003C
:10005000D8C00000D6C00000D4C000003AC20000E2
:10006000D0C00000FBC20000D0C20000CAC0000027
:10007000C8C00000C6C00000C4C00000C2C000006C
:10008000C0C00000BEC00000BCC00000BAC000007C
:10009000B8C00000B6C00000B4C00000B2C000008C
:1000A000B0C00000AEC00000ACC00000AAC000009C
:1000B000A8C00000A6C00000A4C00000A2C00000AC
:1000C000A0C000009EC000009CC000009AC00000BC
:1000D00098C0000096C000006FC2000044C200003B
:1000E00090C0000000002200250028002B002E00F8
:1000F0003100340002010000050108010B0100007D
:100100002100240027002A002D00300033000101C7
:100110000000040107010A01050505050705080897
:100120000808020202020A0A080804040404010181
:100130000101010101010303030303030303040796
:1001400007070C0C0C0C0C0C0C0C0202020206062D
:100150000606060606060B0B0B0B0B0B0B0B010220
:1001600010202008081020401020408002010201C9
:100170000804020101020408102040808040201081
:1001800008040201800402018040201008040201DA
:100190000804020101020408102040800102040842
:1001A00010204080570311241FBECFEFD1E2DEBFE5
:1001B000CDBF00E00CBF12E0A0E0B2E0E2EEF8E05C
:1001C00000E00BBF02C007900D92A031B107D9F734
:1001D00023E0A0E1B2E001C01D92A335B207E1F730
:1001E00010E0C3EDD0E000E005C021970109802FA9
:1001F000FE0169D3C23DD10780E00807B1F7AAD25A
:100200006EC3FECEFC01A089B18982E08C93A485E7
:10021000B5851C92A685B7858FEC8C93108EA4892A
:10022000B58986E08C93A289B3898C9180618C9387
:10023000A289B3898C9188608C93A289B3898C91AF
:1002400080688C930288F389E02D80818F7D808384
:100250000895CF92DF92EF92FF920F931F93CF9367
:10026000DF936C017A018B01C0E0D0E0CE15DF0591
:1002700089F0D8016D918D01D601ED91FC9101902D
:10028000F081E02DC6011995892B11F47E0102C081
:100290002196ECCFC701DF91CF911F910F91FF9075
:1002A000EF90DF90CF900895FC01A089B1898C91E7
:1002B000A689B78982FD0FC09C91818D8F5F8F7356
:1002C000228D821749F0218DDF01A20FB11D5D96AD
:1002D0009C93818F08958C910895FC01918D828D5E
:1002E000981761F0828DDF01A80FB11D5D968C918A
:1002F000928D9F5F9F73928F90E008958FEF9FEF95
:100300000895FC01918D828D981731F0828DE80F50
:10031000F11D858D90E008958FEF9FEF0895FC010A
:10032000918D228D892F90E0805C9F4F821B9109D7
:100330008F739927089589E192E0F1DF21E0892BFD
:1003400009F420E0822F089586EB92E0E8DF21E0B7
:10035000892B09F420E0822F0895FC01848DDF01B0
:10036000A80FB11DA35ABF4F2C91848D90E0019628
:100370008F739927848FA689B7892C93A089B18917
:100380008C9180648C93938D848D981306C0028821
:10039000F389E02D80818F7D80830895EF92FF9215
:1003A0000F931F93CF93DF93EC0181E0888F9B8D98
:1003B0008C8D981305C0E889F989808185FD23C05B
:1003C000F62E0B8D10E00F5F1F4F0F731127E02EDD
:1003D0008C8DE8120BC00FB607FCFACFE889F989BB
:1003E000808185FFF5CFCE01B8DFF2CF8B8DFE0186
:1003F000E80FF11DE35AFF4FF0820B8FEA89FB896A
:100400008081806207C0EE89FF896083E889F9896D
:1004100080818064808381E090E0DF91CF911F91A3
:100420000F91FF90EF900895CF93DF93EC01888DAB
:100430008823C1F0EA89FB89808185FD05C0A889F0
:10044000B9898C9186FD0EC00FB607FCF5CF80816F
:1004500085FFF2CFA889B9898C9185FFEDCFCE01B8
:100460007CDFE8CFDF91CF91089580E090E0892B89
:1004700019F06ADF811120C080E090E0892B41F003
:1004800080E090E0892B21F00E940000811117C0CC
:1004900080E090E0892B41F080E090E0892B21F012
:1004A0000E94000081110EC080E090E0892B79F05D
:1004B00042DF81110AC008950E940000DDCF0E9432
:1004C0000000E6CF0E940000EFCF0C9400000895DA
:1004D00002D21F920F920FB60F9211242F933F93C7
:1004E0008F939F93AF93BF938091150290911602C3
:1004F000A0911702B09118023091140223E0230F4B
:100500002D3720F40196A11DB11D05C026E8230F4B
:100510000296A11DB11D20931402809315029093A1
:100520001602A0931702B0931802809110029091C6
:100530001102A0911202B09113020196A11DB11DEA
:100540008093100290931102A0931202B0931302B1
:10055000BF91AF919F918F913F912F910F900FBEBF
:100560000F901F9018951F920F920FB60F921124A3
:100570000BB60F922F933F934F935F936F937F939D
:100580008F939F93AF93BF93EF93FF9389E192E093
:10059000E4DEFF91EF91BF91AF919F918F917F9199
:1005A0006F915F914F913F912F910F900BBE0F90E4
:1005B0000FBE0F901F9018951F920F920FB60F92BB
:1005C00011240BB60F922F933F934F935F936F932A
:1005D0007F938F939F93AF93BF93EF93FF9389E1A3
:1005E00092E062DEFF91EF91BF91AF919F918F9169
:1005F0007F916F915F914F913F912F910F900BBE23
:100600000F900FBE0F901F9018951F920F920FB66C
:100610000F9211240BB60F922F933F934F935F933A
:100620006F937F938F939F93AF93BF93EF93FF93BA
:1006300086EB92E092DEFF91EF91BF91AF919F9197
:100640008F917F916F915F914F913F912F910F907B
:100650000BBE0F900FBE0F901F9018951F920F9218
:100660000FB60F9211240BB60F922F933F934F9317
:100670005F936F937F938F939F93AF93BF93EF930A
:10068000FF9386EB92E010DEFF91EF91BF91AF9167
:100690009F918F917F916F915F914F913F912F919A
:1006A0000F900BBE0F900FBE0F901F901895E9E1B1
:1006B000F2E01382128248EE53E060E070E044837F
:1006C00055836683778384E092E09183808325E37A
:1006D00031E03587248724E331E03787268720E31C
:1006E00031E0318B208B21E331E0338B228B22E30D
:1006F00031E0358B248B26E331E0378B268B118E4E
:10070000128E138E148EE6EBF2E013821282448373
:100710005583668377839183808385EC90E095870A
:10072000848784EC90E09787868780EC90E0918BBB
:10073000808B81EC90E0938B828B82EC90E0958BA8
:10074000848B86EC90E0978B868B118E128E138EA5
:10075000148E0895789484B5826084BD84B58160D8
:1007600084BD85B5826085BD85B5816085BD80917C
:100770006E00816080936E001092810080918100F4
:1007800082608093810080918100816080938100EC
:10079000809180008160809380008091B1008460AE
:1007A0008093B1008091B00081608093B00080910F
:1007B000910082608093910080919100816080938C
:1007C0009100809190008160809390008091A100C1
:1007D00082608093A1008091A10081608093A1003C
:1007E0008091A00081608093A000809121018260AF
:1007F000809321018091210181608093210180916A
:10080000200181608093200180917A008460809330
:100810007A0080917A00826080937A0080917A00D9
:10082000816080937A0080917A00806880937A005A
:100830001092C10086EB92E0E5DC89E192E0E2DC17
:10084000EBE6F1E02491E5E2F1E08491882399F070
:1008500090E0880F991FFC01E250FF4FA591B491E1
:10086000FC01EC51FF4F859194918FB7F894EC9176
:10087000E22BEC938FBF86EB92E051DD892B71F078
:1008800086EB92E02ADDE0911902F0911A020190C4
:10089000F081E02D682F89E192E0199589E192E0DD
:1008A0003EDD892B71F089E192E017DDE091B6021F
:1008B000F091B7020190F081E02D682F86EB92E075
:1008C0001995D3DDD8CFEE0FFF1F881F8BBF079080
:1008D000F691E02D199481E090E0F89400C0F8942E
:0208E000FFCF48
:1008E20000000000CE0129018F016D018101140277
:00000001FF
