:100000000CC10000D7C1000006C2000035C20000CC
:1000100064C2000093C20000C2C20000F1C200002E
:1000200020C300002BC1000029C1000027C100002F
:1000300025C100000C94620921C100001FC100000D
:100040001DC100001BC1000019C1000017C1000044
:1000500015C1000013C1000011C1000033C300002E
:100060000DC100006FC50000A3C5000007C100005E
:1000700005C1000003C1000001C10000FFC0000075
:10008000FDC00000FBC00000F9C00000F7C0000088
:10009000FBC500002FC60000F1C00000EFC000004B
:1000A000EDC00000EBC00000E9C00000E7C00000A8
:1000B000E5C00000E3C00000E1C00000DFC00000B8
:1000C000DDC00000DBC000000C94C2097FC6000048
:1000D000B3C60000D3C000001BC700004FC700001C
:1000E000CDC000002604290418041C042204600466
:1000F0002D04310437043B043F04450449044D04F6
:100100006004530457045B0400000A0B02090C0D41
:100110000E080703040100000000000000000000BA
:1001200000000000000000000000000000000000CF
:10013000000000001211100000000000000000008C
:1001400000000000000000000000000000000102AC
:1001500010202008081020401020408002010201D9
:100160000804020101020408102040808040201091
:1001700008040201800402018040201008040201EA
:100180000804020101020408102040800102040852
:10019000102040800505050507050808080802022B
:1001A00002020A0A08080404040401010101010111
:1001B00001010303030303030303040707070C0CF4
:1001C0000C0C0C0C0C0C02020202060606060606BB
:1001D00006060B0B0B0B0B0B0B0B00002200250074
:1001E00028002B002E003100340002010000050120
:1001F00008010B0100002100240027002A002D0027
:100200003000330001010000040107010A0102006F
:100210000106A3064507E707610811241FBECFEFBB
:10022000D1E2DEBFCDBF00E00CBF12E0A0E0B2E043
:10023000E0EBF7E100E00BBF02C007900D92A8339E
:10024000B107D9F724E0A8E3B2E001C01D92AB3DAD
:10025000B207E1F712E0CAE1D2E000E006C022975F
:100260000109FE010BBF0E94D20BC031D10780E013
:100270000807A9F70E94290A0C94D60BC1CE4F9209
:100280005F926F927F928F929F92AF92BF92CF9226
:10029000DF92EF92FF928090D7049090D804A090C4
:1002A000D904B090DA04C501B4010E94F60A2B010A
:1002B0003C01209116023091170240911802509192
:1002C00019020E94C40A87FF0BC0B7FC09C0C09086
:1002D0000E02D0900F02E0901002F090110203C0C5
:1002E000C12CD12C760120E030E040E85FE3609142
:1002F00012027091130280911402909115020E94D3
:100300005F0A9B01AC01C301B2010E94A60B87FDED
:1003100009C01092D7041092D8041092D9041092F8
:10032000DA040DC08FEF881A980AA80AB80A8092DA
:10033000D7049092D804A092D904B092DA0420E0B5
:1003400030E040E853E4C701B6010E94C40A87FFC9
:100350000EC020E030E0A901C701B6010E94A60B43
:1003600087FD07C0C701B6010E94C80A03C06FEF2E
:1003700001C060E080910A02FF90EF90DF90CF9083
:10038000BF90AF909F908F907F906F905F904F90B5
:10039000D1C21092D6041092D5041092D7041092B4
:1003A000D8041092D9041092DA0461E080910A0214
:1003B00088C208951F920F920FB60F9211240BB6A8
:1003C0000F922F933F934F935F936F937F938F93EE
:1003D0009F93AF93BF93EF93FF9380913C029091D3
:1003E0003D02892B29F0E0913C02F0913D021995E4
:1003F000FF91EF91BF91AF919F918F917F916F91FD
:100400005F914F913F912F910F900BBE0F900FBEB8
:100410000F901F9018951F920F920FB60F921124F4
:100420000BB60F922F933F934F935F936F937F93EE
:100430008F939F93AF93BF93EF93FF9380913E026F
:1004400090913F02892B29F0E0913E02F0913F020A
:100450001995FF91EF91BF91AF919F918F917F91EE
:100460006F915F914F913F912F910F900BBE0F9025
:100470000FBE0F901F9018951F920F920FB60F92FC
:1004800011240BB60F922F933F934F935F936F936B
:100490007F938F939F93AF93BF93EF93FF9380913D
:1004A000400290914102892B29F0E0914002F091A5
:1004B00041021995FF91EF91BF91AF919F918F915B
:1004C0007F916F915F914F913F912F910F900BBE54
:1004D0000F900FBE0F901F9018951F920F920FB69E
:1004E0000F9211240BB60F922F933F934F935F936C
:1004F0006F937F938F939F93AF93BF93EF93FF93EC
:100500008091420290914302892B29F0E0914202AE
:10051000F09143021995FF91EF91BF91AF919F9197
:100520008F917F916F915F914F913F912F910F909C
:100530000BBE0F900FBE0F901F9018951F920F9239
:100540000FB60F9211240BB60F922F933F934F9338
:100550005F936F937F938F939F93AF93BF93EF932B
:10056000FF938091380290913902892B29F0E09114
:100570003802F09139021995FF91EF91BF91AF9137
:100580009F918F917F916F915F914F913F912F91AB
:100590000F900BBE0F900FBE0F901F9018951F92DB
:1005A0000F920FB60F9211240BB60F922F933F9319
:1005B0004F935F936F937F938F939F93AF93BF936B
:1005C000EF93FF9380913A0290913B02892B29F09F
:1005D000E0913A02F0913B021995FF91EF91BF91A2
:1005E000AF919F918F917F916F915F914F913F91CB
:1005F0002F910F900BBE0F900FBE0F901F9018956C
:100600001F920F920FB60F9211240BB60F922F93D9
:100610003F934F935F936F937F938F939F93AF938A
:10062000BF93EF93FF938091440290914502892BF1
:1006300029F0E0914402F09145021995FF91EF9164
:10064000BF91AF919F918F917F916F915F914F91EA
:100650003F912F910F900BBE0F900FBE0F901F90E8
:1006600018951F920F920FB60F9211240BB60F928E
:100670002F933F934F935F936F937F938F939F93AA
:10068000AF93BF93EF93FF938091460290914702FF
:10069000892B29F0E0914602F09147021995FF91CC
:1006A000EF91BF91AF919F918F917F916F915F91EA
:1006B0004F913F912F910F900BBE0F900FBE0F9057
:1006C0001F9018951F920F920FB60F9211242F931F
:1006D0003F938F939F93AF93BF93809149029091E3
:1006E0004A02A0914B02B0914C023091480223E0A3
:1006F000230F2D3720F40196A11DB11D05C026E85A
:10070000230F0296A11DB11D209348028093490238
:1007100090934A02A0934B02B0934C0280914D02F9
:1007200090914E02A0914F02B09150020196A11DEE
:10073000B11D80934D0290934E02A0934F02B0934F
:100740005002BF91AF919F918F913F912F910F9048
:100750000FBE0F901F901895789484B5826084BD69
:1007600084B5816084BD85B5826085BD85B58160B5
:1007700085BDEEE6F0E0808181608083E1E8F0E015
:100780001082808182608083808181608083E0E844
:10079000F0E0808181608083E1EBF0E08081846023
:1007A0008083E0EBF0E0808181608083E1E9F0E02C
:1007B000808182608083808181608083E0E9F0E0D5
:1007C000808181608083E1EAF0E0808182608083C3
:1007D000808181608083E0EAF0E0808181608083B5
:1007E000E1E2F1E0808182608083808181608083AA
:1007F000E0E2F1E0808181608083EAE7F0E08081DF
:100800008460808380818260808380818160808336
:100810008081806880831092C100089590E0FC017F
:100820003197E231F10508F04BC0EE58FF4FB4C7E5
:10083000809180008F7703C0809180008F7D8093AE
:100840008000089580918000877FF9CF84B58F77ED
:1008500002C084B58F7D84BD08958091B0008F77EC
:1008600003C08091B0008F7D8093B0000895809187
:1008700090008F7707C0809190008F7D03C080919A
:100880009000877F8093900008958091A0008F77DB
:1008900007C08091A0008F7D03C08091A000877F5A
:1008A0008093A0000895809120018F7707C08091E8
:1008B00020018F7D03C080912001877F80932001DC
:1008C0000895CF93DF9390E0FC01E25BFE4F24910B
:1008D000FC01EC56FE4F8491882349F190E0880F8B
:1008E000991FFC01EC50FE4FA591B49186529E4F8A
:1008F000FC01C591D4919FB7611108C0F8948C9107
:10090000209582238C93888182230AC0623051F41F
:10091000F8948C91322F309583238C938881822B8D
:10092000888304C0F8948C91822B8C939FBFDF91B5
:10093000CF9108950F931F93CF93DF931F92CDB75D
:10094000DEB7282F30E0F901E85FFE4F8491F9010E
:10095000E25BFE4F1491F901EC56FE4F0491002327
:10096000C1F0882319F0698359DF6981E02FF0E035
:10097000EE0FFF1FE652FE4FA591B4919FB7F8947A
:100980008C91611103C01095812301C0812B8C9340
:100990009FBF0F90DF91CF911F910F910895FC01A0
:1009A000818D228D90E0805C9F4F821B91098F7317
:1009B00099270895FC01918D828D981731F0828DD1
:1009C000E80FF11D858D90E008958FEF9FEF08955A
:1009D000FC01918D828D981761F0828DDF01A80F47
:1009E000B11D5D968C91928D9F5F9F73928F90E069
:1009F00008958FEF9FEF0895FC01848DDF01A80F0C
:100A0000B11DA35ABF4F2C91848D90E001968F7336
:100A10009927848FA689B7892C93A089B1898C9155
:100A200080648C93938D848D981306C00288F3891B
:100A3000E02D80818F7D80830895CF93DF93EC013B
:100A4000888D8823C1F0EA89FB89808185FD05C0F6
:100A5000A889B9898C9186FD0EC00FB607FCF5CF29
:100A6000808185FFF2CFA889B9898C9185FFEDCF70
:100A7000CE01C2DFE8CFDF91CF910895CF92DF9210
:100A8000FF920F931F93CF93DF931F92CDB7DEB7E3
:100A90006C01DC015B969C915B975C968C915C97FA
:100AA000981307C05096ED91FC915197808185FD78
:100AB00031C0F601038D10E00F5F1F4F0F73112738
:100AC000F02EF601848DF81210C00FB607FCF9CF96
:100AD000D6015096ED91FC915197808185FFF1CF21
:100AE000C601698389DF6981ECCF838DE80FF11D31
:100AF000E35AFF4F6083D6015B960C935B97529647
:100B0000ED91FC91539780818062808381E05896BB
:100B10008C930DC0D6015696ED91FC91579760834A
:100B20005096ED91FC91519780818064808381E0A3
:100B300090E00F90DF91CF911F910F91FF90DF9088
:100B4000CF9008951F920F920FB60F9211240BB6FB
:100B50000F922F938F939F93EF93FF93E0916102F6
:100B6000F09162028081E0916702F091680282FD5B
:100B700012C0908180916A028F5F8F7320916B0207
:100B8000821751F0E0916A02F0E0EF5AFD4F958F25
:100B900080936A0201C08081FF91EF919F918F91B4
:100BA0002F910F900BBE0F900FBE0F901F901895B6
:100BB0001F920F920FB60F9211240BB60F922F9324
:100BC0003F934F935F936F937F938F939F93AF93D5
:100BD000BF93EF93FF9381E592E00EDFFF91EF91DA
:100BE000BF91AF919F918F917F916F915F914F9145
:100BF0003F912F910F900BBE0F900FBE0F901F9043
:100C00001895109254021092530288EE93E0A0E0DF
:100C1000B0E08093550290935602A0935702B09390
:100C2000580285E292E0909352028093510285EC43
:100C300090E090935E0280935D0284EC90E090934C
:100C4000600280935F0280EC90E090936202809358
:100C5000610281EC90E0909364028093630282ECE5
:100C600090E0909366028093650286EC90E090930A
:100C700068028093670210926A0210926B021092CF
:100C80006C0210926D0208951F920F920FB60F9290
:100C900011240BB60F922F938F939F93EF93FF9393
:100CA000E091FE02F091FF028081E0910403F09157
:100CB000050382FD12C09081809107038F5F8F73BF
:100CC00020910803821751F0E0910703F0E0E25110
:100CD000FD4F958F8093070301C08081FF91EF91B5
:100CE0009F918F912F910F900BBE0F900FBE0F9081
:100CF0001F9018951F920F920FB60F9211240BB6EA
:100D00000F922F933F934F935F936F937F938F93A4
:100D10009F93AF93BF93EF93FF938EEE92E06CDEC1
:100D2000FF91EF91BF91AF919F918F917F916F91C3
:100D30005F914F913F912F910F900BBE0F900FBE7F
:100D40000F901F9018951092F1021092F00288EE09
:100D500093E0A0E0B0E08093F2029093F302A093BE
:100D6000F402B093F50285E292E09093EF02809353
:100D7000EE028DEC90E09093FB028093FA028CECF3
:100D800090E09093FD028093FC0288EC90E09093B9
:100D9000FF028093FE0289EC90E090930103809320
:100DA00000038AEC90E090930303809302038EEC9F
:100DB00090E0909305038093040310920703109230
:100DC00008031092090310920A0308951F920F92CC
:100DD0000FB60F9211240BB60F922F938F939F9300
:100DE000EF93FF93E0919B03F0919C038081E0914E
:100DF000A103F091A20382FD12C090818091A4030F
:100E00008F5F8F732091A503821751F0E091A403A7
:100E1000F0E0E557FC4F958F8093A40301C08081DB
:100E2000FF91EF919F918F912F910F900BBE0F909B
:100E30000FBE0F901F9018951F920F920FB60F9232
:100E400011240BB60F922F933F934F935F936F93A1
:100E50007F938F939F93AF93BF93EF93FF938BE811
:100E600093E0CADDFF91EF91BF91AF919F918F9178
:100E70007F916F915F914F913F912F910F900BBE9A
:100E80000F900FBE0F901F90189510928E03109226
:100E90008D0388EE93E0A0E0B0E080938F03909301
:100EA0009003A0939103B093920385E292E0909314
:100EB0008C0380938B0385ED90E09093980380934F
:100EC000970384ED90E090939A038093990380EDCB
:100ED00090E090939C0380939B0381ED90E090932E
:100EE0009E0380939D0382ED90E09093A0038093F6
:100EF0009F0386ED90E09093A2038093A10310924C
:100F0000A4031092A5031092A6031092A7030895BC
:100F10001F920F920FB60F9211240BB60F922F93C0
:100F20008F939F93EF93FF93E0913804F0913904EE
:100F30008081E0913E04F0913F0482FD12C09081D7
:100F4000809141048F5F8F7320914204821751F08A
:100F5000E0914104F0E0E85DFB4F958F8093410400
:100F600001C08081FF91EF919F918F912F910F9000
:100F70000BBE0F900FBE0F901F9018951F920F92EF
:100F80000FB60F9211240BB60F922F933F934F93EE
:100F90005F936F937F938F939F93AF93BF93EF93E1
:100FA000FF9388E294E028DDFF91EF91BF91AF912C
:100FB0009F918F917F916F915F914F913F912F9171
:100FC0000F900BBE0F900FBE0F901F9018951092B0
:100FD0002B0410922A0488EE93E0A0E0B0E0809306
:100FE0002C0490932D04A0932E04B0932F0485E23B
:100FF00092E0909329048093280485E391E09093F4
:1010000035048093340484E391E090933704809313
:10101000360480E391E0909339048093380481E3AF
:1010200091E090933B0480933A0482E391E09093A3
:101030003D0480933C0486E391E090933F048093C9
:101040003E04109241041092420410924304109204
:1010500044040895AF92BF92CF92DF92EF92FF9235
:101060000F931F93CF93DF936C017B01C0E0D0E01F
:1010700000E010E0F601EC0FFD1F4AE050E0628155
:10108000C701D6D05C016EE2C70168D08A0D9B1DF6
:10109000080F191F2196C330D10561F74AE050E0CF
:1010A000F6016581C701C4D0800F911FDF91CF91F8
:1010B0001F910F91FF90EF90DF90CF90BF90AF9076
:1010C000089585E392E09093C6048093C50410923E
:1010D000C7041092C8041092C9041092CA0408955B
:1010E000CF92DF92EF92FF920F931F93CF93DF93F4
:1010F0006C017A01EB01E60EF71E00E010E0CE1560
:10110000DF0561F06991D601ED91FC910190F081CC
:10111000E02DC6011995080F191FF1CFC801DF9105
:10112000CF911F910F91FF90EF90DF90CF90089596
:101130006115710581F0DB010D900020E9F7AD012B
:1011400041505109461B570BDC01ED91FC91028087
:10115000F381E02D199480E090E00895DC01ED9199
:10116000FC910190F081E02D19948F929F92AF92A3
:10117000BF92CF92DF92EF92FF920F931F93CF9384
:10118000DF93CDB7DEB7A1970FB6F894DEBF0FBEE1
:10119000CDBF7C01C42EE52FCB01D22E19A221E0B8
:1011A0002D1510F02AE0D22E8E010F5D1F4F8D2CD1
:1011B000912CA12CB12C6C2D7E2FA5019401CAD2AB
:1011C0008C2DD29E80191124015011098A3014F4FB
:1011D000805D01C0895CF8018083211531054105DE
:1011E000510521F0C22EE32FCA01E5CFB801C70196
:1011F0009FDFA1960FB6F894DEBF0FBECDBFDF9183
:10120000CF911F910F91FF90EF90DF90CF90BF9003
:10121000AF909F908F9008952115310541F4DC0126
:10122000ED91FC910190F081E02D642F19949DCFF8
:101230009A01462F50E060E070E0EECF8230A9F0D6
:1012400028F4882349F0813051F00895843009F161
:10125000E8F0853009F1089510926E0008958091AC
:101260006F008D7F80936F000895809170008D7F57
:101270008093700081E08093B0008091B100887FFE
:1012800084608093B1001092B300089510927100B1
:101290000895109272000895109273000895CF93EC
:1012A000C82F80911E028C1307C0EEE0F2E08491FB
:1012B0009FEF90931E0201C08FEFC0DF60E08C2F84
:1012C000CF9138CB1F920F920FB60F9211240BB60D
:1012D0000F922F933F934F935F936F937F938F93CF
:1012E0009F93AF93BF93EF93FF938091CE04909120
:1012F000CF04A091D004B091D104892B8A2B8B2BE1
:1013000051F19091CB04E091CC04F091CD04808117
:10131000892780838091CE049091CF04A091D0043E
:10132000B091D104181619061A061B06BCF4809158
:10133000CE049091CF04A091D004B091D104019734
:10134000A109B1098093CE049093CF04A093D00457
:10135000B093D10403C080911E02A1DFFF91EF91F1
:10136000BF91AF919F918F917F916F915F914F91BD
:101370003F912F910F900BBE0F900FBE0F901F90BB
:10138000189508951F920F920FB60F9211240BB665
:101390000F922F933F934F935F936F937F938F930E
:1013A0009F93AF93BF93EF93FF938EEE95E8909347
:1013B00025018093240132D0FF91EF91BF91AF912D
:1013C0009F918F917F916F915F914F913F912F915D
:1013D0000F900BBE0F900FBE0F901F9018958EEEC2
:1013E00095E89093250180932401A3E7B0E08C91C8
:1013F0008E7F8C93E0E2F1E080818C7F8083E1E25C
:10140000F1E08081877E8083808184608083808119
:101410008C7F80838C9181608C9308952091D2047D
:1014200081E0820F8093D204222349F081E090E092
:101430009093D4048093D3042093D2040895789495
:101440000E943F01F8948091D20481508093D2048D
:1014500008950F931F93CF93DF931F92CDB7DEB7FD
:1014600081E0898379D98DDF00911F0210912002DC
:10147000F801118210820E94C901B1DFF801808158
:10148000918121E0892B09F020E0298378947894D8
:101490008981882349F0F8018081918121E0892B9D
:1014A00009F020E02983F4CF0E94D901F89480E06C
:1014B00090E00F90DF91CF911F910F9108955058B8
:1014C000BB27AA270ED008C1F9D030F0FED020F0FB
:1014D00031F49F3F11F41EF4EEC00EF4E095E7FBEB
:1014E000E4C0E92F0AD180F3BA17620773078407B3
:1014F000950718F071F49EF522C10EF4E0950B2EBD
:10150000BA2FA02D0B01B90190010C01CA01A00155
:101510001124FF27591B99F0593F50F4503E68F1B0
:101520001A16F040A22F232F342F4427585FF3CFF1
:10153000469537952795A795F0405395C9F77EF4C2
:101540001F16BA0B620B730B840BBAF09150A1F00B
:10155000FF0FBB1F661F771F881FC2F70EC0BA0F91
:10156000621F731F841F48F4879577956795B79519
:10157000F7959E3F08F0B3CF9395880F08F0992711
:10158000EE0F9795879508956CD008F481E0089543
:10159000BCD088F09F5790F0B92F9927B751A0F091
:1015A000D1F0660F771F881F991F1AF0BA95C9F7F7
:1015B00012C0B13081F0C3D0B1E00895C0C0672F30
:1015C000782F8827B85F39F0B93FCCF386957795A7
:1015D0006795B395D9F73EF4909580957095619590
:1015E0007F4F8F4F9F4F0895E89409C097FB3EF4BB
:1015F00090958095709561957F4F8F4F9F4F992360
:10160000A9F0F92F96E9BB279395F69587957795DD
:101610006795B795F111F8CFFAF4BB0F11F460FF9D
:101620001BC06F5F7F4F8F4F9F4F16C0882311F0F5
:1016300096E911C0772321F09EE8872F762F05C009
:10164000662371F096E8862F70E060E02AF09A95A4
:10165000660F771F881FDAF7880F9695879597F999
:101660000895990F0008550FAA0BE0E8FEEF161633
:101670001706E807F907C0F012161306E407F50786
:1016800098F0621B730B840B950B39F40A2661F0FA
:10169000232B242B252B21F408950A2609F4A1409D
:1016A000A6958FEF811D811D089597F99F6780E8AA
:1016B00070E060E008959FEF80EC089500240A94A4
:1016C0001616170618060906089500240A9412161D
:1016D0001306140605060895092E0394000C11F450
:1016E000882352F0BB0F40F4BF2B11F460FF04C0FD
:1016F0006F5F7F4F8F4F9F4F089557FD9058440F56
:10170000551F59F05F3F71F04795880F97FB991F60
:1017100061F09F3F79F0879508951216130614061D
:10172000551FF2CF4695F1DF08C0161617061806AA
:10173000991FF1CF86957105610508940895E89485
:10174000BB2766277727CB0197F908958ADF08F42E
:101750008FEF0895A1E21A2EAA1BBB1BFD010DC03D
:10176000AA1FBB1FEE1FFF1FA217B307E407F50751
:1017700020F0A21BB30BE40BF50B661F771F881F2D
:10178000991F1A9469F760957095809590959B01C3
:10179000AC01BD01CF010895EE0FFF1F0590F4913C
:1017A000E02D19940790F691E02D1994F894FFCF4D
:1017B0000000DB048000010000000D0000000000BC
:1017C000803F000000400000803F00000000FFD587
:1017D00004000000003E057008CF04E804DA041D90
:0817E00005000000002A0800CA
:00000001FF
