:100000000C9462000C948A000C948A000C948A0070
:100010000C948A000C948A000C948A000C948A0038
:100020000C948A000C948A000C948A000C948A0028
:100030000C948A000C948A000C948A000C948A0018
:100040000C9476020C948A000C9444020C941E02C8
:100050000C948A000C948A000C948A000C948A00F8
:100060000C948A000C948A000000000024002700F1
:100070002A000000000023002600290000000000E4
:10008000250028002B0004040404040404040202D4
:100090000202020203030303030301020408102007
:1000A0004080010204081020010204081020000012
:1000B0000008000201000003040700000000000027
:1000C00000007B0411241FBECFEFD8E0DEBFCDBF00
:1000D00011E0A0E0B1E0E0E5FDE002C005900D9286
:1000E000A431B107D9F721E0A4E1B1E001C01D922C
:1000F000AA3BB207E1F710E0C2E6D0E004C02197C6
:10010000FE010E94CA04C136D107C9F70E94050347
:100110000C94A6060C940000EDEBF0E02491E9EAC3
:10012000F0E09491E5E9F0E0E491EE2309F43BC0BE
:10013000222339F1233091F038F42130A9F0223014
:1001400001F524B52F7D12C0273091F02830A1F0A1
:100150002430B9F4209180002F7D03C020918000CD
:100160002F77209380000DC024B52F7724BD09C0C0
:100170002091B0002F7703C02091B0002F7D2093F5
:10018000B000F0E0EE0FFF1FE458FF4FA591B491CF
:100190002FB7F894EC91811103C090959E2301C074
:1001A0009E2B9C932FBF0895CF92DF92EF92FF92E8
:1001B0000F931F93CF93DF936C017A018B01C0E003
:1001C000D0E0CE15DF0589F0D8016D918D01D60103
:1001D000ED91FC910190F081E02DC6010995892BEC
:1001E00011F47E0102C02196ECCFC701DF91CF91BF
:1001F0001F910F91FF90EF90DF90CF900895FC0139
:10020000918D828D981761F0828DDF01A80FB11D4D
:100210005D968C91928D9F5F9F73928F90E0089571
:100220008FEF9FEF0895FC01918D828D981731F02B
:10023000828DE80FF11D858D90E008958FEF9FEF7F
:100240000895FC01918D228D892F90E0805C9F4F55
:10025000821B91098F73992708958DE191E00E9487
:10026000210121E0892B09F420E0822F0895FC016F
:10027000848DDF01A80FB11DA35ABF4F2C91848D2F
:1002800090E001968F739927848FA689B7892C9364
:10029000A089B1898C9180648C93938D848D9813FF
:1002A00006C00288F389E02D80818F7D80830895C8
:1002B000EF92FF920F931F93CF93DF93EC0181E0B6
:1002C000888F9B8D8C8D981305C0E889F989808172
:1002D00085FD24C0F62E0B8D10E00F5F1F4F0F73AE
:1002E0001127E02E8C8DE8120CC00FB607FCFACF58
:1002F000E889F989808185FFF5CFCE010E94370119
:10030000F1CF8B8DFE01E80FF11DE35AFF4FF08214
:100310000B8FEA89FB898081806207C0EE89FF89A3
:100320006083E889F98980818064808381E090E03E
:10033000DF91CF911F910F91FF90EF900895CF9390
:10034000DF93EC01888D8823C9F0EA89FB898081DD
:1003500085FD05C0A889B9898C9186FD0FC00FB6AF
:1003600007FCF5CF808185FFF2CFA889B9898C91F0
:1003700085FFEDCFCE010E943701E7CFDF91CF910E
:10038000089580E090E0892B29F00E942D018111D1
:100390000C94000008958F929F92AF92BF920F939A
:1003A0001F93CF93DF93CDB7DEB7A1970FB6F89425
:1003B000DEBF0FBECDBF19A2423008F44AE08E0165
:1003C0000F5D1F4F842E912CA12CB12CA5019401FF
:1003D0000E94A804E62FB901CA0101501109EA30B0
:1003E00014F4E05D01C0E95CD801EC93232B242BCD
:1003F000252B61F70115110571F0F801019000201E
:10040000E9F73197AF01401B510BB8018DE191E045
:100410000E94D40002C080E090E0A1960FB6F8944C
:10042000DEBF0FBECDBFDF91CF911F910F91BF9067
:10043000AF909F908F9008950E94A1061F920F92F7
:100440000FB60F9211242F933F934F935F936F93A7
:100450007F938F939F93AF93BF93EF93FF938DE120
:1004600091E00E943701FF91EF91BF91AF919F9171
:100470008F917F916F915F914F913F912F910F904D
:100480000FBE0F901F9018951F920F920FB60F92EC
:1004900011242F938F939F93EF93FF93E0912D015E
:1004A000F0912E018081E0913301F091340182FDC1
:1004B00012C09081809136018F5F8F732091370138
:1004C000821751F0E0913601F0E0E35EFE4F958F28
:1004D0008093360101C08081FF91EF919F918F91B0
:1004E0002F910F900FBE0F901F9018951F920F9293
:1004F0000FB60F9211242F933F938F939F93AF9337
:10050000BF938091190190911A01A0911B01B091A4
:100510001C013091180123E0230F2D3720F40196A0
:10052000A11DB11D05C026E8230F0296A11DB11D16
:10053000209318018093190190931A01A0931B0135
:10054000B0931C018091140190911501A0911601A6
:10055000B09117010196A11DB11D809314019093D4
:100560001501A0931601B0931701BF91AF919F9110
:100570008F913F912F910F900FBE0F901F90189564
:10058000CF92DF92EF92FF920F931F93E82FF92FF4
:1005900005C0015011092109310961F190819623AB
:1005A0009417B9F305C0015011092109310911F15E
:1005B000908196239413F7CFC12CD12CE12CF12CF0
:1005C0000AC08FEFC81AD80AE80AF80A0C151D05E8
:1005D0002E053F0579F080818623841791F36C2DD9
:1005E0007D2D8E2D9F2D1F910F91FF90EF90DF900D
:1005F000CF90089560E070E080E090E01F910F914F
:10060000FF90EF90DF90CF900895789484B582604A
:1006100084BD84B5816084BD85B5826085BD85B5A6
:10062000816085BD80916E00816080936E00109224
:10063000810080918100826080938100809181009F
:100640008160809381008091800081608093800030
:100650008091B10084608093B1008091B00081608E
:100660008093B00080917A00846080937A008091BA
:100670007A00826080937A0080917A008160809312
:100680007A0080917A00806880937A001092C1008D
:10069000E9EAF0E02491E5E9F0E08491882399F01B
:1006A00090E0880F991FFC01E859FF4FA591B49184
:1006B000FC01E458FF4F859194918FB7F894EC9129
:1006C000E22BEC938FBFEAEAF0E02491E6E9F0E058
:1006D00084918823C1F090E0880F991FFC01E859AC
:1006E000FF4FC591D491FC01E458FF4FA591B491FF
:1006F0009FB7F8948881E22FE0958E2388838C91B0
:10070000E823EC939FBF93E0A92EB12CC3E2D0E085
:100710002AEA222E20E0322E36E9832E30E0932E74
:10072000E0912D01F0912E0182E08083E09129017A
:10073000F0912A011082E0912B01F0912C018FECB5
:10074000808310923501E0913101F091320186E011
:100750008083E0912F01F09130018081806180835E
:10076000E0912F01F0913001808188608083E091D9
:100770002F01F0913001808180688083E0912F010A
:10078000F091300180818F7D808380E00E948C0019
:10079000C5010197F1F781E00E948C00CE0101971D
:1007A000F1F780E00E948C00F1016491F4018491E2
:1007B000E82FF0E0EE0FFF1FEE58FF4F8591949168
:1007C00000E412E42FE030E0462F0E94C0026115E1
:1007D00071058105910539F0DC01CB010196A11D60
:1007E000B11DBF7003C080E090E0DC01BC01990F37
:1007F000880B990B0E947F0525E83CEF4CED51E4F6
:100800000E94D50420E030E040E05FE30E9434061F
:100810000E9447056B017C01072E000C880B990B89
:100820000E947F052B013C0126E636E646EE5FE39B
:100830000E942F0618167CF420E030E04AE754E4CA
:10084000C301B2010E94D00487FF05C0CE01019709
:10085000F1F7C60102C08FEF9FEF6C01990FEE0810
:10086000FF08F7FE14C0E0911D01F0911E010190F8
:10087000F081E02D6DE28DE191E009956627772703
:10088000CB016C197D098E099F094AE003C04AE03B
:10089000C701B6010E94CB0142E050E060E171E087
:1008A0008DE191E00E94D4008DE191E00E949F01D2
:1008B000E0912F01F091300180818F7E8083E09163
:1008C0002F01F09130018081877F8083E0912F019B
:1008D000F091300180818F778083E0912F01F0913A
:1008E000300180818F7D8083809137018093360134
:1008F0000E94C10115CFEDE1F1E01382128288EE72
:1009000093E0A0E0B0E084839583A683B78384E07E
:1009100091E09183808385EC90E09587848784ECD7
:1009200090E09787868780EC90E0918B808B81ECBC
:1009300090E0938B828B82EC90E0958B848B86EC9D
:1009400090E0978B868B118E128E138E148E0895E5
:10095000A1E21A2EAA1BBB1BFD010DC0AA1FBB1FC3
:10096000EE1FFF1FA217B307E407F50720F0A21B35
:10097000B30BE40BF50B661F771F881F991F1A94A2
:1009800069F760957095809590959B01AC01BD01CC
:10099000CF010895EE0FFF1F0590F491E02D09940B
:1009A0000E94BA0508F481E008950E94E9040C94BD
:1009B000F5050E94EE0558F00E94E70540F029F485
:1009C0005F3F29F00C94DE0551110C9429060C941C
:1009D000E4050E94060668F39923B1F3552391F3C9
:1009E000951B550BBB27AA2762177307840738F09E
:1009F0009F5F5F4F220F331F441FAA1FA9F335D0FB
:100A00000E2E3AF0E0E832D091505040E695001CAE
:100A1000CAF72BD0FE2F29D0660F771F881FBB1F68
:100A2000261737074807AB07B0E809F0BB0B802D46
:100A3000BF01FF2793585F4F3AF09E3F510578F072
:100A40000C94DE050C9429065F3FE4F3983ED4F342
:100A5000869577956795B795F7959F5FC9F7880F46
:100A6000911D9695879597F90895E1E0660F771F98
:100A7000881FBB1F621773078407BA0720F0621B29
:100A8000730B840BBA0BEE1F88F7E09508950E9454
:100A90004E056894B1110C94290608950E940E0623
:100AA00088F09F5798F0B92F9927B751B0F0E1F02F
:100AB000660F771F881F991F1AF0BA95C9F714C0DF
:100AC000B13091F00E942806B1E008950C942806F8
:100AD000672F782F8827B85F39F0B93FCCF3869518
:100AE00077956795B395D9F73EF490958095709575
:100AF00061957F4F8F4F9F4F0895E89409C097FBF2
:100B00003EF490958095709561957F4F8F4F9F4FE4
:100B10009923A9F0F92F96E9BB279395F695879528
:100B200077956795B795F111F8CFFAF4BB0F11F4EB
:100B300060FF1BC06F5F7F4F8F4F9F4F16C0882392
:100B400011F096E911C0772321F09EE8872F762FC8
:100B500005C0662371F096E8862F70E060E02AF009
:100B60009A95660F771F881FDAF7880F96958795F5
:100B700097F90895990F0008550FAA0BE0E8FEEFCA
:100B800016161706E807F907C0F012161306E40751
:100B9000F50798F0621B730B840B950B39F40A264A
:100BA00061F0232B242B252B21F408950A2609F428
:100BB000A140A6958FEF811D811D089597F99F672C
:100BC00080E870E060E008959FEF80EC08950024D5
:100BD0000A941616170618060906089500240A94A2
:100BE00012161306140605060895092E0394000C28
:100BF00011F4882352F0BB0F40F4BF2B11F460FFB7
:100C000004C06F5F7F4F8F4F9F4F089557FD9058DF
:100C1000440F551F59F05F3F71F04795880F97FBC0
:100C2000991F61F09F3F79F087950895121613067A
:100C30001406551FF2CF4695F1DF08C016161706A9
:100C40001806991FF1CF86957105610508940895DE
:100C5000E894BB2766277727CB0197F908950E9470
:100C6000BA0508F48FEF08950E9447060C94F50525
:100C70000E94E70538F00E94EE0520F0952311F060
:100C80000C94DE050C94E40511240C9429060E94B2
:100C9000060670F3959FC1F3950F50E0551F629FB4
:100CA000F001729FBB27F00DB11D639FAA27F00DC5
:100CB000B11DAA1F649F6627B00DA11D661F829FEC
:100CC0002227B00DA11D621F739FB00DA11D621FD1
:100CD000839FA00D611D221F749F3327A00D611DEE
:100CE000231F849F600D211D822F762F6A2F1124D0
:100CF0009F5750409AF0F1F088234AF0EE0FFF1F03
:100D0000BB1F661F771F881F91505040A9F79E3F59
:100D1000510580F00C94DE050C9429065F3FE4F346
:100D2000983ED4F3869577956795B795F795E795AF
:100D30009F5FC1F7FE2B880F911D9695879597F9B8
:100D4000089581E090E0F8940C94A606F894FFCF03
:100D5000000000005801D4002101FF0013019F0191
:040D60000D0A000078
:00000001FF
