:100000000C9463000C9487050C9460050C94AE0569
:100010000C94AE050C94AE050C948B000C948B00E4
:100020000C948B000C948B000C948B000C948B0024
:100030000C948B000C948B000C948B000C948B0014
:100040000C9416050C948B000C94E4040C94BE04E0
:100050000C948B000C948B000C948B000C948B00F4
:100060000C948B000C948B000000000024002700EF
:100070002A0000000008000201000003040700003D
:1000800000000000000000000000250028002B00F8
:1000900000000000230026002900040404040404D6
:1000A0000404020202020202030303030303010227
:1000B00004081020408001020408102001020408F6
:1000C000102028066F0811241FBECFEFD8E0DEBF36
:1000D000CDBF11E0A0E0B1E0E6E6F7E102C0059097
:1000E0000D92AC32B107D9F722E0ACE2B1E001C029
:1000F0001D92A733B207E1F710E0C2E6D0E004C0DA
:100100002197FE010E94C308C136D107C9F70E949A
:10011000D3060C94A60B0C940000DC01ED91FC912D
:100120000190F081E02D0994CF92DF92EF92FF923F
:100130000F931F93CF93DF936C017A018B01C0E083
:10014000D0E0CE15DF0589F0D8016D918D01D60183
:10015000ED91FC910190F081E02DC6010995892B6C
:1001600011F47E0102C02196ECCFC701DF91CF913F
:100170001F910F91FF90EF90DF90CF900895FC01B9
:10018000918D828D981761F0828DDF01A80FB11DCE
:100190005D968C91928D9F5F9F73928F90E00895F2
:1001A0008FEF9FEF0895FC01918D828D981731F0AC
:1001B000828DE80FF11D858D90E008958FEF9FEF00
:1001C0000895FC01918D228D892F90E0805C9F4FD6
:1001D000821B91098F73992708958BE791E00E9404
:1001E000E10021E0892B09F420E0822F0895FC0131
:1001F000848DDF01A80FB11DA35ABF4F2C91848DB0
:1002000090E001968F739927848FA689B7892C93E4
:10021000A089B1898C9180648C93938D848D98137F
:1002200006C00288F389E02D80818F7D8083089548
:10023000EF92FF920F931F93CF93DF93EC0181E036
:10024000888F9B8D8C8D981305C0E889F9898081F2
:1002500085FD24C0F62E0B8D10E00F5F1F4F0F732E
:100260001127E02E8C8DE8120CC00FB607FCFACFD8
:10027000E889F989808185FFF5CFCE010E94F700DA
:10028000F1CF8B8DFE01E80FF11DE35AFF4FF08295
:100290000B8FEA89FB898081806207C0EE89FF8924
:1002A0006083E889F98980818064808381E090E0BF
:1002B000DF91CF911F910F91FF90EF900895CF9311
:1002C000DF93EC01888D8823C9F0EA89FB8980815E
:1002D00085FD05C0A889B9898C9186FD0FC00FB630
:1002E00007FCF5CF808185FFF2CFA889B9898C9171
:1002F00085FFEDCFCE010E94F700E7CFDF91CF91D0
:10030000089580E090E0892B29F00E94ED00811192
:100310000C9400000895833081F028F4813099F026
:100320008230A1F008958730A9F08830B9F0843088
:10033000D1F4809180008F7D03C0809180008F7701
:1003400080938000089584B58F7702C084B58F7D37
:1003500084BD08958091B0008F7703C08091B00074
:100360008F7D8093B0000895CF93DF93282F30E0E6
:10037000F901EE58FF4F8491F901E255FF4FD491F6
:10038000F901E656FF4FC491CC2391F081110E94F0
:100390008B01EC2FF0E0EE0FFF1FE057FF4FA59110
:1003A000B491EC91ED2381E090E021F480E002C073
:1003B00080E090E0DF91CF9108951F93CF93DF937A
:1003C000282F30E0F901EE58FF4F8491F901E255F2
:1003D000FF4FD491F901E656FF4FC491CC23C9F0E9
:1003E000162F81110E948B01EC2FF0E0EE0FFF1F02
:1003F000EA57FF4FA591B4918FB7F894111105C03A
:100400009C91ED2FE095E92302C0EC91ED2BEC934C
:100410008FBFDF91CF911F910895CF93DF9390E02D
:10042000FC01E255FF4F2491FC01E656FF4F8491F9
:10043000882361F190E0880F991FFC01E859FF4F74
:10044000C591D491FC01EA57FF4FA591B491611178
:1004500009C09FB7F8948881209582238883EC9106
:100460002E230BC0623061F49FB7F8943881822F3D
:10047000809583238883EC912E2B2C939FBF06C0FD
:100480008FB7F894E8812E2B28838FBFDF91CF910F
:1004900008958E3008F08E508770806480937C00C1
:1004A00080917A00806480937A0080917A0086FD42
:1004B000FCCF809178002091790090E0922B0895F4
:1004C0003FB7F8948091760190917701A0917801DF
:1004D000B091790126B5A89B05C02F3F19F0019670
:1004E000A11DB11D3FBFBA2FA92F982F8827820FBA
:1004F000911DA11DB11DBC01CD0142E0660F771F0A
:10050000881F991F4A95D1F708958F929F92AF92B5
:10051000BF92CF92DF92EF92FF920E9460024B0156
:100520005C0184E6C82ED12CE12CF12C0E946002E3
:10053000DC01CB0188199909AA09BB09883E9340BF
:10054000A105B10558F021E0C21AD108E108F1086F
:1005500088EE880E83E0981EA11CB11CC114D10442
:10056000E104F10419F7FF90EF90DF90CF90BF9076
:10057000AF909F908F900895089520916F013091D2
:1005800070012817390771F490916E0180916D0107
:10059000981741F0E0916E01F0E0E35DFE4F80813D
:1005A00090E008958FEF9FEF089508951F93CF93E4
:1005B000DF93DC015C962D913C915D97211531050F
:1005C00039F481E090E013969C938E9312973DC08E
:1005D0005196ED91FC91529750969C915097892F8E
:1005E00080951FB75E964C915E9741FB772770F917
:1005F00041FD6095F8944081772311F0492B01C0AB
:1006000048234083E9012197F1F748E0508160FFDA
:1006100002C0592B01C058235083E9012197F1F7FB
:100620006695415099F7772321F090818923808343
:1006300003C08081982B90831FBF5C968D919C9105
:100640005D970197F1F721E030E0C901DF91CF918B
:100650001F91089520916F0130917001281739077B
:1006600071F480916D0120916E0190E0805C9F4F4C
:10067000821B910960E470E00E947908089580E08F
:1006800090E0089520916F0130917001281739078B
:10069000B9F490916E0180916D01981789F0E09105
:1006A0006E01F0E0E35DFE4F808120916E0130E04D
:1006B0002F5F3F4F2F73332720936E0190E00895F3
:1006C0008FEF9FEF0895E0916F01F0917001E817AF
:1006D000F90769F4A389B4899C9185898095892358
:1006E0008C931092700110926F0181E0089580E068
:1006F000089561E08BE00E94DD010E948502109266
:100700003302109232021092310210923002109293
:100710002F0210922E028DE991E090933502809382
:10072000340290912402963108F057C02DEB30E04E
:1007300030932F0220932E022BE931E030933102C7
:10074000209330022CE231E03093330220933202C6
:1007500020916800983050F031E09E3008F430E08D
:1007600081E001C0880F3A95EAF701C084E0822B4E
:1007700080936800983038F09E3040F0963148F011
:1007800020E030E008C02DE630E005C02BE630E088
:1007900002C02CE630E030932C0220932B029830DC
:1007A00030F481E001C0880F9A95EAF70EC0292F36
:1007B00030E09E3018F42850310902C02E50310923
:1007C00081E001C0880F2A95EAF780932D0280917D
:1007D0003402909135020197F1F7809132029091A5
:1007E0003302892B21F180916F019091700122E0F9
:1007F00088319207E1F0009711F00E946303809125
:1008000036028E7F8093360210926D0110926E0137
:1008100088E192E09093700180936F01E0912B0248
:10082000F0912C02908180912D02892B808381E0B0
:1008300080937A01089588E192E00E94630360E06A
:100840008BE00E94DD0110927A010E9485020C94D7
:1008500079036115710579F0FB0101900020E9F73A
:100860003197AF01461B570BDC01ED91FC910280E3
:10087000F381E02D099480E090E008954F925F921B
:100880006F927F928F929F92AF92BF92CF92DF92A0
:10089000EF92FF920F931F93CF93DF93CDB7DEB705
:1008A000A1970FB6F894DEBF0FBECDBF8C016B01D0
:1008B000770FEE08FF08F7FE2AC06DE20E948D0058
:1008C0005C0122273327A9012C193D094E095F0934
:1008D00019A2CE0181967C019AE0492E512C612CFF
:1008E000712CCA01B901A30192010E948D08605DBB
:1008F000F70162937F01211531054105510589F703
:10090000BF01C8010E9429048A0D9B1D1EC0A701BA
:10091000960119A2CE0181967C018AE0882E912C45
:10092000A12CB12CCA01B901A50194010E948D0826
:10093000605DF70162937F01211531054105510585
:1009400089F7BF01C8010E942904A1960FB6F89447
:10095000DEBF0FBECDBFDF91CF911F910F91FF90F2
:10096000EF90DF90CF90BF90AF909F908F907F904F
:100970006F905F904F9008950E94C9081F920F9248
:100980000FB60F9211242F933F934F935F936F9362
:100990007F938F939F93AF93BF93EF93FF938BE7D7
:1009A00091E00E94F700FF91EF91BF91AF919F916D
:1009B0008F917F916F915F914F913F912F910F9008
:1009C0000FBE0F901F9018951F920F920FB60F92A7
:1009D00011242F938F939F93EF93FF93E0918B01BB
:1009E000F0918C018081E0919101F091920182FD62
:1009F00012C09081809194018F5F8F732091950137
:100A0000821751F0E0919401F0E0E558FE4F958F88
:100A10008093940101C08081FF91EF919F918F910C
:100A20002F910F900FBE0F901F9018951F920F924D
:100A30000FB60F9211242F933F938F939F93AF93F1
:100A4000BF938091720190917301A0917401B09154
:100A500075013091710123E0230F2D3720F40196A9
:100A6000A11DB11D05C026E8230F0296A11DB11DD1
:100A7000209371018093720190937301A09374018C
:100A8000B09375018091760190917701A0917801E2
:100A9000B09179010196A11DB11D809376019093CB
:100AA0007701A0937801B0937901BF91AF919F91A5
:100AB0008F913F912F910F900FBE0F901F9018951F
:100AC0001F920F920FB60F9211242F933F934F93C3
:100AD0005F936F937F938F939F93AF93BF93EF93A6
:100AE000FF93E0910201F09103010995FF91EF91CD
:100AF000BF91AF919F918F917F916F915F914F9136
:100B00003F912F910F900FBE0F901F9018951F923D
:100B10000F920FB60F9211242F933F934F935F9331
:100B20006F937F938F939F93AF93BF93EF93FF93B5
:100B3000E0910001F09101010995FF91EF91BF91C2
:100B4000AF919F918F917F916F915F914F913F9165
:100B50002F910F900FBE0F901F9018951F920F921C
:100B60000FB60F9211242F933F934F935F936F9380
:100B70007F938F939F93AF93BF93EF93FF93E091F6
:100B80006F01F0917001309709F451C0968DA685E0
:100B9000B785858591FF04C09C91892329F447C0BE
:100BA0009C91892309F043C0A389B4899C918589CC
:100BB000809589238C93868997890197F1F7608DB9
:100BC000718DA685B785558538E020E0CB0101976A
:100BD000F1F7822F90E095958795282F4C9145232A
:100BE00009F02068315091F7868D81FD2095809124
:100BF0006D0190E001968F73992730916E0138173F
:100C000049F0A0916D01B0E0A35DBE4F2C9380939D
:100C10006D0103C0868D8160868F828D938D0197D3
:100C2000F1F7A389B4899C918589892B8C93FF91D5
:100C3000EF91BF91AF919F918F917F916F915F9154
:100C40004F913F912F910F900FBE0F901F901895CD
:100C500010927E0110927D0188EE93E0A0E0B0E05A
:100C600080937F0190938001A0938101B0938201D2
:100C700028E031E030937C0120937B0125EC30E0CB
:100C8000309388012093870124EC30E030938A016F
:100C90002093890120EC30E030938C0120938B016C
:100CA00021EC30E030938E0120938D0122EC30E076
:100CB0003093900120938F0126EC30E03093920125
:100CC0002093910110929401109295011092960137
:100CD0001092970110921B0210921A0280931C022C
:100CE00090931D02A0931E02B0931F0288E191E031
:100CF000909319028093180210922F0210922E02E4
:100D0000109231021092300210923302109232028D
:100D10001092350210923402609136026E7F6D7F20
:100D2000609336026695617081E068278CE00E94CE
:100D3000DD0161E08CE00E940D02EAEBF0E0E4915D
:100D4000E0932802E6EAF0E0E491F0E0EE0FFF1F06
:100D5000EA57FF4F8591949190932A02809329023C
:100D600060E08DE00E940D028091360281FD04C09A
:100D700061E08DE00E94DD018DE080932402EBEBC9
:100D8000F0E0E491E0932502E7EAF0E0E491F0E09E
:100D9000EE0FFF1FE057FF4F85919491909327022C
:100DA000809326020895CF93DF93CDB7DEB7609787
:100DB0000FB6F894DEBF0FBECDBF789484B58260C5
:100DC00084BD84B5816084BD85B5826085BD85B5EF
:100DD000816085BD80916E00816080936E0010926D
:100DE00081008091810082608093810080918100E8
:100DF0008160809381008091800081608093800079
:100E00008091B10084608093B1008091B0008160D6
:100E10008093B00080917A00846080937A00809102
:100E20007A00826080937A0080917A00816080935A
:100E30007A0080917A00806880937A001092C100D5
:100E40008BE194E09093030180930201809169000B
:100E5000837F886080936900E99AE0918B01F0912B
:100E60008C0182E08083E0918701F09188011082FB
:100E7000E0918901F0918A018FEC808310929301B7
:100E8000E0918F01F091900186E08083E0918D01E7
:100E9000F0918E01808180618083E0918D01F091DD
:100EA0008E01808188608083E0918D01F0918E01B8
:100EB000808180688083E0918D01F0918E01808136
:100EC0008F7D808361E08BE00E940D020E94790398
:100ED0007E0186E0E80EF11CDE0111961D018EE018
:100EE0000E944902AC018FE04D875E870E94490253
:100EF0009C0187E02F87388B0E94B4014C0186E06B
:100F00000E94B4015C0185E00E94B4016C0184E0A0
:100F10000E94B4019C878B8783E00E94B4018C01FE
:100F200088E00E94B4012C0189E00E94B4013C01D8
:100F30005E855F934D854F93A4E2B1E0BF93AF937D
:100F4000FF92EF920E94CE0838893F932F852F930E
:100F5000A4E2B1E0BF93AF933F922F920E94CE08DC
:100F60000FB6F894DEBF0FBECDBF4114510409F097
:100F700049C06CE38BE791E00E948D00B7018BE7DD
:100F800091E00E94290468E58BE791E00E948D00C2
:100F9000B1018BE791E00E94290469E58BE791E0BC
:100FA0000E948D00B4018BE791E00E943E04B501E0
:100FB0008BE791E00E943E04B6018BE791E00E942E
:100FC0003E046B857C858BE791E00E943E04B8016E
:100FD0008BE791E00E943E0460E070E08BE791E0D7
:100FE0000E943E04B3018BE791E00E943E046EE351
:100FF0008BE791E00E948D0069E271E08BE791E060
:101000000E94290480917A01882309F465C06CE369
:1010100088E192E00E948D00B70188E192E00E9491
:10102000290468E588E192E00E948D00B10188E121
:1010300092E00E94290469E588E192E00E948D0017
:10104000B40188E192E00E943E04B50188E192E09B
:101050000E943E04B60188E192E00E943E046B8546
:101060007C8588E192E00E943E04B80188E192E02C
:101070000E943E04B20188E192E00E943E04B30166
:1010800088E192E00E943E046EE388E192E00E94D3
:101090008D0088E192E00E942A03892BE9F088E123
:1010A00092E00E9442038C0188E192E00E94420398
:1010B00088E192E00E94420388E192E00E944203AC
:1010C000B801605371098BE791E00E943E0460E231
:1010D0008BE791E00E948D000E94810100CF88E1A2
:1010E00091E0909319028093180288E192E00C94A9
:1010F000630397FB072E16F4009407D077FD09D001
:101100000E94AF0807FC05D03EF4909581959F4F53
:101110000895709561957F4F0895A1E21A2EAA1B3C
:10112000BB1BFD010DC0AA1FBB1FEE1FFF1FA21797
:10113000B307E407F50720F0A21BB30BE40BF50B94
:10114000661F771F881F991F1A9469F7609570951D
:10115000809590959B01AC01BD01CF010895AA1B1C
:10116000BB1B51E107C0AA1FBB1FA617B70710F092
:10117000A61BB70B881F991F5A95A9F780959095C4
:10118000BC01CD010895EE0FFF1F0590F491E02DF5
:10119000099481E090E0F8940C94A60BAEE0B0E0E6
:1011A000E4EDF8E00C947D0B0D891E8986E08C83BC
:1011B0001A8309838FEF9FE79E838D83AE01475E7D
:1011C0005F4F6F89788DCE0101960E94F1082F81C3
:1011D0003885F801E20FF31F10822E96E4E00C949C
:1011E000990BACE0B0E0E7EFF8E00C946F0B7C01FA
:1011F0006B018A01FC0117821682838181FFBDC1C8
:10120000CE0101964C01F7019381F60193FD859182
:1012100093FF81916F01882309F4ABC1853239F4C2
:1012200093FD859193FF81916F01853229F4B70178
:1012300090E00E94D90AE7CF512C312C20E02032D7
:10124000A0F48B3269F030F4803259F0833269F4C3
:1012500020612CC08D3239F0803339F4216026C0F2
:101260002260246023C0286021C027FD27C030ED04
:10127000380F3A3078F426FF06C0FAE05F9E300D52
:101280001124532E13C08AE0389E300D1124332EC2
:1012900020620CC08E3221F426FD6BC1206406C092
:1012A0008C3611F4206802C0883641F4F60193FDB3
:1012B000859193FF81916F018111C1CF982F9F7DFF
:1012C0009554933028F40C5F1F4FFFE3F9830DC052
:1012D000833631F0833771F0833509F05BC022C06B
:1012E000F801808189830E5F1F4F44244394512C61
:1012F000540115C03801F2E06F0E711CF801A08096
:10130000B18026FF03C0652D70E002C06FEF7FEF54
:10131000C5012C870E94CE0A2C0183012C852F77D2
:10132000222E17C03801F2E06F0E711CF801A08068
:10133000B18026FF03C0652D70E002C06FEF7FEF24
:10134000C5012C870E94C30A2C012C852068222EFF
:10135000830123FC1BC0832D90E048165906B0F48E
:10136000B70180E290E00E94D90A3A94F4CFF501E7
:1013700027FC859127FE81915F01B70190E00E94D3
:10138000D90A31103A94F1E04F1A5108411451042E
:1013900071F7E5C0843611F0893639F5F80127FF79
:1013A00007C060817181828193810C5F1F4F08C0EB
:1013B00060817181072E000C880B990B0E5F1F4F07
:1013C0002F76722E97FF09C0909580957095619544
:1013D0007F4F8F4F9F4F2068722E2AE030E0A4018C
:1013E0000E94110BA82EA81844C0853729F42F7E1F
:1013F000B22E2AE030E025C0F22FF97FBF2E8F36C3
:10140000C1F018F4883579F0B4C0803719F0883706
:1014100021F0AFC02F2F2061B22EB4FE0DC08B2D56
:101420008460B82E09C024FF0AC09F2F9660B92E91
:1014300006C028E030E005C020E130E002C020E135
:1014400032E0F801B7FE07C060817181828193812B
:101450000C5F1F4F06C06081718180E090E00E5FDD
:101460001F4FA4010E94110BA82EA818FB2DFF7777
:101470007F2E76FE0BC0372D3E7FA51450F474FEF0
:101480000AC072FC08C0372D3E7E05C0BA2C372D2D
:1014900003C0BA2C01C0B52C34FF0DC0FE01EA0D0B
:1014A000F11D8081803311F4397E09C032FF06C0FE
:1014B000B394B39404C0832F867809F0B39433FDBA
:1014C00013C030FF06C05A2CB31418F4530C5B1829
:1014D000B32CB31468F4B70180E290E03C870E941B
:1014E000D90AB3943C85F5CFB31410F43B1801C06E
:1014F000312C34FF12C0B70180E390E03C870E949A
:10150000D90A3C8532FF17C031FD03C088E790E05F
:1015100002C088E590E0B7010CC0832F867859F0AF
:1015200031FF02C08BE201C080E237FD8DE2B701DE
:1015300090E00E94D90AA51438F4B70180E390E046
:101540000E94D90A5A94F7CFAA94F401EA0DF11D2A
:101550008081B70190E00E94D90AA110F5CF332015
:1015600009F451CEB70180E290E00E94D90A3A9482
:10157000F6CFF7018681978102C08FEF9FEF2C96FF
:10158000E2E10C948B0BFC0105906150704001105E
:10159000D8F7809590958E0F9F1F0895FC0161509C
:1015A000704001900110D8F7809590958E0F9F1F85
:1015B00008950F931F93CF93DF93FB01238121FDA8
:1015C00003C08FEF9FEF28C022FF16C046815781CE
:1015D000248135814217530744F4A081B1819D01D4
:1015E0002F5F3F4F318320838C93268137812F5F7C
:1015F0003F4F3783268310C0EB01092F182F00843B
:10160000F185E02D0995892BE1F68E819F81019668
:101610009F838E83812F902FDF91CF911F910F9108
:101620000895FA01AA27283051F1203181F1E89478
:101630006F936E7F6E5F7F4F8F4F9F4FAF4FB1E0C5
:101640003ED0B4E03CD0670F781F891F9A1FA11DC0
:10165000680F791F8A1F911DA11D6A0F711D811DC1
:10166000911DA11D20D009F468943F912AE0269F86
:1016700011243019305D3193DEF6CF010895462FE5
:101680004770405D4193B3E00FD0C9F7F6CF462FC6
:101690004F70405D4A3318F0495D31FD405241932F
:1016A00002D0A9F7EACFB4E0A695979587957795EC
:1016B0006795BA95C9F700976105710508959B0173
:1016C000AC010A2E06945795479537952795BA95FC
:1016D000C9F7620F731F841F951FA01D08952F92D5
:1016E0003F924F925F926F927F928F929F92AF92B2
:1016F000BF92CF92DF92EF92FF920F931F93CF93FF
:10170000DF93CDB7DEB7CA1BDB0B0FB6F894DEBF95
:101710000FBECDBF09942A88398848885F846E84BB
:101720007D848C849B84AA84B984C884DF80EE8005
:10173000FD800C811B81AA81B981CE0FD11D0FB60E
:10174000F894DEBF0FBECDBFED01089510E0C2E6F4
:10175000D0E004C0FE010E94C3082196C336D10721
:06176000C9F7F894FFCF69
:10176600BC02BC020000000018019400E100BF00AA
:10177600D3005F0100000000D60294002A03420352
:0C178600BD02D50225303458000D0A00C9
:00000001FF
