:1000000007C1000034C1000032C1000030C100004F
:100010002EC100002CC100002AC1000028C1000030
:1000200026C1000024C1000022C1000020C1000040
:100030001EC100001CC100001AC1000065C4000000
:1000400016C1000014C1000012C1000010C1000060
:100050000EC100000CC100000AC10000ACC30000CA
:1000600006C100001BC40000F0C3000000C1000076
:10007000FEC00000FCC00000FAC00000F8C0000094
:10008000F6C00000F4C00000F2C00000F0C00000A4
:10009000EEC00000ECC00000EAC00000ABC40000ED
:1000A000E6C00000E4C00000E2C00000E0C00000C4
:1000B000DEC00000DCC00000DAC00000D8C00000D4
:1000C000D6C00000D4C00000D2C00000D0C00000E4
:1000D000CEC00000CCC00000CAC00000C8C00000F4
:1000E000C6C000006501680157015B015F019F0107
:1000F0006C01700176017A017E01840188018C0116
:100100009F01920196019A0100002100240027001E
:100110002A002D0030003300010100000401070116
:100120000A0100002200250028002B002E003100CB
:10013000340002010000050108010B010505050559
:10014000070508080808020202020A0A080804044F
:10015000040401010101010101010303030303037D
:100160000303040707070C0C0C0C0C0C0C0C02020C
:10017000020206060606060606060B0B0B0B0B0B09
:100180000B0B010210202008081020401020408096
:10019000020102010804020101020408102040804B
:1001A00080402010080402018004020180402010D9
:1001B0000804020108040201010204081020408022
:1001C000010204081020408000000A0B02090C0DF7
:1001D0000E080703040100000000000000000000FA
:1001E000000000000000000000000000000000000F
:1001F00000000000121110000000000000000000CC
:1002000000000000000000000000000000002B06BD
:1002100011241FBECFEFD1E2DEBFCDBF00E00CBF87
:1002200012E0A0E0B2E0EAE7F4E100E00BBF02C0B8
:1002300007900D92AC32B107D9F723E0ACE2B2E0FF
:1002400001C01D92A63AB207E1F711E0C8E0D1E083
:1002500000E005C021970109802FFE017BD7C73040
:10026000D10780E00807B1F72FD50C943B0AC8CE20
:1002700090E0FC01E853FE4F4491FC01EE57FE4F25
:100280002491FC01E45CFE4F9491992309F465C02C
:10029000442309F454C050E0FA013197E231F105EA
:1002A00008F04DC08827EE58FF4F8F4F53C78091FD
:1002B00080008F7707C0809180008F7D03C0809180
:1002C0008000877F809380003AC084B58F7702C01A
:1002D00084B58F7D84BD33C08091B0008F7703C01B
:1002E0008091B0008F7D8093B00029C080919000F4
:1002F0008F7707C0809190008F7D03C08091900020
:10030000877F809390001BC08091A0008F7707C0EB
:100310008091A0008F7D03C08091A000877F809393
:10032000A0000DC0809120018F7707C0809120012F
:100330008F7D03C080912001877F80932001E92F6A
:10034000F0E0EE0FFF1FEE5DFE4FA591B4918FB769
:10035000F894EC912E2B2C938FBF0895CF93DF93BD
:1003600090E0FC01EE57FE4F2491FC01E45CFE4F4F
:1003700084918823C1F090E0880F991FFC01E85F09
:10038000FE4FC591D491FC01EE5DFE4FA591B49155
:100390009FB7F8948881E22FE0958E2388838C9113
:1003A000E823EC939FBFDF91CF910895CF92DF9226
:1003B000EF92FF920F931F93CF93DF936C017A011B
:1003C0008B01C0E0D0E0CE15DF0589F0D8016D913A
:1003D0008D01D601ED91FC910190F081E02DC601D7
:1003E0001995892B11F47E0102C02196ECCFC7012B
:1003F000DF91CF911F910F91FF90EF90DF90CF9001
:10040000089581E08093D3020895E091CD02F091A8
:10041000CE02309729F01092C6021092C5021994AC
:100420000895CF93DF93AC01E0914C02F0914D021F
:100430003097F1F09091C8028091C7029817C0F0F0
:1004400090E0292F30E02617370754F4D901A45D36
:10045000BD4FEA01C20FD31F88818C939F5FF1CFFC
:100460001092C8026093C702CB01DF91CF9119941B
:10047000DF91CF910895FC01918D828D981761F0E5
:10048000828DDF01A80FB11D5D968C91928D9F5FCB
:100490009F73928F90E008958FEF9FEF0895FC0176
:1004A000918D828D981731F0828DE80FF11D858D29
:1004B00090E008958FEF9FEF0895FC01918D228DBC
:1004C000892F90E0805C9F4F821B91098F73992741
:1004D00008958DEF92E0F1DF21E0892B09F420E00F
:1004E000822F0895FC01848DDF01A80FB11DA35A4E
:1004F000BF4F2C91848D90E001968F739927848F44
:10050000A689B7892C93A089B1898C9180648C933A
:10051000938D848D981306C00288F389E02D808125
:100520008F7D80830895EF92FF920F931F93CF9357
:10053000DF93EC0181E0888F9B8D8C8D981305C033
:10054000E889F989808185FD23C0F62E0B8D10E0A6
:100550000F5F1F4F0F731127E02E8C8DE8120BC019
:100560000FB607FCFACFE889F989808185FFF5CFBE
:10057000CE01B8DFF2CF8B8DFE01E80FF11DE35AFB
:10058000FF4FF0820B8FEA89FB898081806207C070
:10059000EE89FF896083E889F9898081806480839E
:1005A00081E090E0DF91CF911F910F91FF90EF904C
:1005B0000895CF93DF93EC01888D8823C1F0EA89F9
:1005C000FB89808185FD05C0A889B9898C9186FD4C
:1005D0000EC00FB607FCF5CF808185FFF2CFA8894A
:1005E000B9898C9185FFEDCFCE017CDFE8CFDF911B
:1005F000CF91089580E090E0892B19F06ADF811196
:1006000025C080E090E0892B41F080E090E0892BCC
:1006100021F00E94000081111CC080E090E0892B35
:1006200041F080E090E0892B21F00E9400008111D0
:1006300013C080E090E0892BA1F080E090E0892B4E
:1006400081F00E94000081110AC008950E940000FC
:10065000D8CF0E940000E1CF0E940000EACF0C94A6
:1006600000000895863308F0865390917B00282F70
:100670002870977F922B90937B0087708064809383
:100680007C0080917A00806480937A0080917A0067
:1006900086FDFCCF809178002091790090E0922B2C
:1006A000089585ED8093BC008091BC0084FDFCCF53
:1006B0001092C402089540916E02262F30E0240F5C
:1006C000311D21323105DCF42091C4022430C9F4FB
:1006D000FC0180E090E0861758F430916E02219181
:1006E000DC01A25BBD4FA30FB11D2C930196F3CF8C
:1006F00080916E02680F60936E0280E0089581E041
:10070000089582E008950895E091C8028091C7029B
:10071000E81730F4F0E0E45DFD4F808190E008954B
:100720008FEF9FEF08959091C8028091C7029817AC
:1007300050F4E92FF0E0E45DFD4F208130E09F5F51
:100740009093C80202C02FEF3FEFC9010895809136
:10075000C70290E02091C802821B91090895CF93AF
:10076000DF931F921F92CDB7DEB7CB01642F498371
:100770005A83A1DF4981842F5A81952F0F900F90C2
:10078000DF91CF91089544E050E06FEC72E08AE988
:1007900093E0E5CFCF93DF931F92CDB7DEB76983A8
:1007A00061E0CE01019687DF81E090E00F90DF915C
:1007B000CF9108955CD61F920F920FB60F9211241D
:1007C0002F933F938F939F93AF93BF938091F902A1
:1007D0009091FA02A091FB02B091FC023091F802D4
:1007E00023E0230F2D3720F40196A11DB11D05C074
:1007F00026E8230F0296A11DB11D2093F8028093D5
:10080000F9029093FA02A093FB02B093FC0280914C
:10081000F4029091F502A091F602B091F7020196D0
:10082000A11DB11D8093F4029093F502A093F602EE
:10083000B093F702BF91AF919F918F913F912F910C
:100840000F900FBE0F901F9018951F920F920FB62A
:100850000F9211240BB60F922F933F934F935F93F8
:100860006F937F938F939F93AF93BF93EF93FF9378
:100870008DEF92E037DEFF91EF91BF91AF919F91A5
:100880008F917F916F915F914F913F912F910F9039
:100890000BBE0F900FBE0F901F9018951F920F92D6
:1008A0000FB60F9211240BB60F922F938F939F9335
:1008B000EF93FF93E0910D03F0910E038081E0919F
:1008C0001303F091140382FD12C0908180911603EE
:1008D0008F5F8F7320911703821751F0E0911603F9
:1008E000F0E0E350FD4F958F8093160301C08081A7
:1008F000FF91EF919F918F912F910F900BBE0F90D1
:100900000FBE0F901F9018951F920F920FB60F9267
:1009100011240BB60F922F933F934F935F936F93D6
:100920007F938F939F93AF93BF93EF93FF938091A8
:10093000BB029091BC028093B2008091BE02909164
:10094000BF02A091C002B091C1020196A11DB11DCC
:100950008093BE029093BF02A093C002B093C102E5
:100960008091BE029091BF02A091C002B091C102DD
:100970004091B7025091B8026091B9027091BA02E9
:1009800084179507A607B70710F18091BD02811162
:100990001EC081E08093BD028091BE029091BF0293
:1009A000A091C002B091C102841B950BA60BB70B9E
:1009B0008093BE029093BF02A093C002B093C10285
:1009C000E091B502F091B60219951092BD02FF9127
:1009D000EF91BF91AF919F918F917F916F915F91B7
:1009E0004F913F912F910F900BBE0F900FBE0F9024
:1009F0001F9018951F920F920FB60F9211240BB6ED
:100A00000F922F933F934F935F936F937F938F93A7
:100A10009F93AF93BF93EF93FF938091B900887F2B
:100A2000803609F49CC068F5883209F45BC090F404
:100A3000803109F454C038F4882309F4F6C08830B2
:100A400009F44DC0F5C0883109F44CC0803209F476
:100A50005DC0EEC0803409F468C048F4803309F406
:100A600055C0883309F0E4C080939102D8C0803526
:100A700009F44FC0883509F45DC0883409F0D8C046
:100A8000D6C0883909F4C7C0A8F4883709F467C00C
:100A900038F4883609F463C0803709F460C0C8C0F0
:100AA000883809F4B8C0803909F45FC0803809F08B
:100AB000BFC05BC0803B09F486C038F4803A09F4BB
:100AC00066C0883A09F47FC0B3C0803C09F4A7C06F
:100AD000883C09F4A4C0883B09F48AC0A9C080916D
:100AE000B40210C09091B3028091B202981770F5D1
:100AF000E091B30281E08E0F8093B302F0E0EE56F6
:100B0000FD4F80818093BB0085EC86C0809391026D
:100B10008EC0E091B30281E08E0F8093B30280918A
:100B2000BB00F0E0EE56FD4F80839091B3028091C0
:100B3000B2026EC0E091B30281E08E0F8093B302E7
:100B40008091BB00F0E0EE56FD4F80838091C302A0
:100B500081116DC081E08093C20284EA61C083E0AC
:100B60008093C40210929002CFCF80919002803285
:100B700008F051C0E091900281E08E0F80939002C6
:100B80008091BB00F0E0E059FD4F8083BDCF85EC44
:100B90008093BC001092C40280919002803230F4A5
:100BA000E0919002F0E0E059FD4F108260919002D8
:100BB00070E0E091C902F091CA0280E792E01995D5
:100BC0001092900235C084E08093C40210926F02AC
:100BD00010926E02E091CB02F091CC0219958091B7
:100BE0006E02811105C081E080936E0210924E0268
:100BF000E0916F0281E08E0F80936F02F0E0E25B84
:100C0000FD4F80818093BB0090916F0280916E02B6
:100C1000981708F479CF85E88093BC0009C085EC6B
:100C20008093BC001092C40203C01092910239DD7F
:100C3000FF91EF91BF91AF919F918F917F916F91B4
:100C40005F914F913F912F910F900BBE0F900FBE70
:100C50000F901F901895EDEFF2E01382128288EE4C
:100C600093E0A0E0B0E084839583A683B7832CE073
:100C700032E03183208325EC30E03587248724EC73
:100C800030E03787268720EC30E0318B208B21EC59
:100C900030E0338B228B22EC30E0358B248B26EC3A
:100CA00030E0378B268B118E128E138E148EEAE96C
:100CB000F3E01382128284839583A683B7838CE149
:100CC00092E0918380830895CF93DF93CDB7DEB711
:100CD000E3970FB6F894DEBF0FBECDBF789484B50E
:100CE000826084BD84B5816084BD85B5826085BD28
:100CF00085B5816085BD80916E00816080936E00B6
:100D000010928100809181008260809381008091A7
:100D10008100816080938100809180008160809358
:100D200080008091B10084608093B1008091B00018
:100D300081608093B00080919100826080939100E7
:100D400080919100816080939100809190008160FA
:100D5000809390008091A10082608093A100809197
:100D6000A10081608093A1008091A00081608093A8
:100D7000A000809121018260809321018091210156
:100D80008160809321018091200181608093200106
:100D900080917A00846080937A0080917A008260EA
:100DA00080937A0080917A00816080937A008091AC
:100DB0007A00806880937A001092C10087E3CEDACF
:100DC00088E3CCDA89E3CADA8AE3C8DA84E690E019
:100DD000A0E0B0E08093B7029093B802A093B9026C
:100DE000B093BA0281E092E09093B6028093B5028C
:100DF000809170008E7F809370008091B0008C7F16
:100E00008093B0008091B100877F8093B100809182
:100E1000B6008F7D8093B600809170008D7F8093A7
:100E200070008091B10084608093B1008091B10026
:100E30008C7F8093B10086E090E09093BC02809319
:100E4000BB021092BE021092BF021092C00210921A
:100E5000C1021092BD028091BB029091BC028093AE
:100E6000B20080917000816080937000E0910D036A
:100E7000F0910E0382E08083E0910903F0910A0370
:100E80001082E0910B03F0910C038FEC80831092A1
:100E90001503E0911103F091120386E08083E09145
:100EA0000F03F0911003808180618083E0910F0334
:100EB000F0911003808188608083E0910F03F091AE
:100EC0001003808180688083E0910F03F09110030C
:100ED00080818F7D808386E18093BA0085E092E0F7
:100EE0009093CC028093CB0281E192E09093CA026E
:100EF0008093C9021092C8021092C7021092C602D3
:100F00001092C5021092C40281E08093C302109235
:100F1000C20284E1ADD985E1ABD98091B9008E7F61
:100F20008093B9008091B9008D7F8093B90088E4E7
:100F30008093B80085E48093BC0083EC93E09093A9
:100F4000CE028093CD029E01265D3F4F59012E01B6
:100F500032E2430E511C22242394312C3AE0C32E5A
:100F6000D12CE12CF12C88E0E0E0F2E0D5010190F9
:100F70000D928A95E1F788E0D2011D928A95E9F7F2
:100F800087E370DB9BA38AA388E36CDB9DA38CA320
:100F900089E368DB9FA38EA38AE364DB99A788A714
:100FA000B2013501ECEDF2E024EE32E03BAB2AABCE
:100FB00094ED892E92E0992E8CEE92E0A401DB0153
:100FC0000D911D91BD01D3012D913D913D01DC019C
:100FD000201731071CF52D923C92AAA9BBA92D918F
:100FE0003C9111972130310559F4318320831D92B2
:100FF0001C92DA012D913C9111972F5F3F4F15C044
:10100000208131812131BEE03B071CF0118210822A
:101010000EC02F5F3F4F3183208309C02D913C913B
:101020002130310521F4AAA9BBA92D933C93329616
:101030002AA93BA92E5F3F4F3BAB2AAB4E5F5F4FC8
:1010400002966A157B0509F0BACF8091D3028823F6
:1010500009F45CC08FEC682E82E0782ED4016D918B
:101060007C91072E000C880B990B12D120E030E008
:1010700040E752E499D120E030E040E152E472D000
:10108000D9D0F30161933F01262F30E040E050E0DA
:1010900019A28E010F5D1F4FCA01B901A701960168
:1010A00037D0605DD8016E938D0121153105410562
:1010B000510591F7109761F0FD0101900020E9F7CB
:1010C0003197AF014A1B5B0BBD018DEF92E06ED9EA
:1010D000E091FD02F091FE020190F081E02D60E2CE
:1010E0008DEF92E01995F401119211924F01FCEDF0
:1010F0008F16F2E09F0609F0B1CF42E050E068E2BF
:1011000072E08DEF92E052D91092D30273DA2BCFB6
:10111000A1E21A2EAA1BBB1BFD010DC0AA1FBB1FFB
:10112000EE1FFF1FA217B307E407F50720F0A21B6D
:10113000B30BE40BF50B661F771F881F991F1A94DA
:1011400069F760957095809590959B01AC01BD0104
:10115000CF010895EE0FFF1F881F8BBF0790F691F8
:10116000E02D19940CD0E6C0DED040F0D5D030F0A0
:1011700021F45F3F19F0C7C0511110C1CAC0EBD0B4
:1011800098F39923C9F35523B1F3951B550BBB274E
:10119000AA2762177307840738F09F5F5F4F220FFB
:1011A000331F441FAA1FA9F333D00E2E3AF0E0E8F4
:1011B00030D091505040E695001CCAF729D0FE2F40
:1011C00027D0660F771F881FBB1F261737074807D2
:1011D000AB07B0E809F0BB0B802DBF01FF27935888
:1011E0005F4F2AF09E3F510568F08DC0D7C05F3F2A
:1011F000ECF3983EDCF3869577956795B795F79570
:101200009F5FC9F7880F911D9695879597F9089567
:10121000E1E0660F771F881FBB1F62177307840703
:10122000BA0720F0621B730B840BBA0BEE1F88F712
:10123000E095089598D088F09F5790F0B92F99279E
:10124000B751A0F0D1F0660F771F881F991F1AF0D1
:10125000BA95C9F712C0B13081F09FD0B1E00895BE
:101260009CC0672F782F8827B85F39F0B93FCCF33F
:10127000869577956795B395D9F73EF490958095C7
:10128000709561957F4F8F4F9F4F0895E89409C0E7
:1012900097FB3EF490958095709561957F4F8F4FA9
:1012A0009F4F9923A9F0F92F96E9BB279395F695BF
:1012B000879577956795B795F111F8CFFAF4BB0F3D
:1012C00011F460FF1BC06F5F7F4F8F4F9F4F16C0A1
:1012D000882311F096E911C0772321F09EE8872F2B
:1012E000762F05C0662371F096E8862F70E060E0E7
:1012F0002AF09A95660F771F881FDAF7880F969560
:10130000879597F9089597F99F6780E870E060E006
:1013100008959FEF80EC089500240A94161617068E
:1013200018060906089500240A94121613061406D6
:1013300005060895092E0394000C11F4882352F039
:10134000BB0F40F4BF2B11F460FF04C06F5F7F4FF1
:101350008F4F9F4F089557FD9058440F551F59F0D8
:101360005F3F71F04795880F97FB991F61F09F3F92
:1013700079F087950895121613061406551FF2CFBB
:101380004695F1DF08C0161617061806991FF1CF0B
:1013900086957105610508940895E894BB27662732
:1013A0007727CB0197F908950BD0C4CFB5DF28F08C
:1013B000BADF18F0952309F0A6CFABCF1124EECFFA
:1013C000CADFA0F3959FD1F3950F50E0551F629FA0
:1013D000F001729FBB27F00DB11D639FAA27F00D8E
:1013E000B11DAA1F649F6627B00DA11D661F829FB5
:1013F0002227B00DA11D621F739FB00DA11D621F9A
:10140000839FA00D611D221F749F3327A00D611DB6
:10141000231F849F600D211D822F762F6A2F112498
:101420009F5750408AF0E1F088234AF0EE0FFF1FEB
:10143000BB1F661F771F881F91505040A9F79E3F22
:10144000510570F060CFAACF5F3FECF3983EDCF31C
:10145000869577956795B795F795E7959F5FC1F75F
:10146000FE2B880F911D9695879597F9089581E039
:0A14700090E0F89400C0F894FFCF5C
:10147A009001900190019001000000009302D601B2
:10148A005D023B024F02D90200000000CA03AF030B
:0C149A00A7039303840383030D0A0000E2
:00000001FF
